{"abi":[{"type":"constructor","inputs":[{"name":"_implementation","type":"address","internalType":"address"},{"name":"_governor","type":"address","internalType":"address"},{"name":"_timelock","type":"address","internalType":"address"}],"stateMutability":"nonpayable"},{"type":"function","name":"IMPLEMENTATION","inputs":[],"outputs":[{"name":"","type":"address","internalType":"address"}],"stateMutability":"view"},{"type":"function","name":"createCampaign","inputs":[{"name":"stablecoin","type":"address","internalType":"address"},{"name":"metadataCid","type":"string","internalType":"string"},{"name":"trustScore","type":"uint256","internalType":"uint256"}],"outputs":[{"name":"campaignAddr","type":"address","internalType":"address"},{"name":"escAddr","type":"address","internalType":"address"}],"stateMutability":"nonpayable"},{"type":"function","name":"emitCampaignLive","inputs":[{"name":"campaign","type":"address","internalType":"address"}],"outputs":[],"stateMutability":"nonpayable"},{"type":"function","name":"emitMilestoneProposed","inputs":[{"name":"id","type":"uint256","internalType":"uint256"},{"name":"proofCid","type":"string","internalType":"string"},{"name":"amount","type":"uint256","internalType":"uint256"}],"outputs":[],"stateMutability":"nonpayable"},{"type":"function","name":"emitMilestoneReleased","inputs":[{"name":"id","type":"uint256","internalType":"uint256"},{"name":"amount","type":"uint256","internalType":"uint256"}],"outputs":[],"stateMutability":"nonpayable"},{"type":"function","name":"governor","inputs":[],"outputs":[{"name":"","type":"address","internalType":"address"}],"stateMutability":"view"},{"type":"function","name":"timelock","inputs":[],"outputs":[{"name":"","type":"address","internalType":"address"}],"stateMutability":"view"},{"type":"event","name":"CampaignCreated","inputs":[{"name":"campaign","type":"address","indexed":false,"internalType":"address"},{"name":"escrow","type":"address","indexed":false,"internalType":"address"},{"name":"creator","type":"address","indexed":false,"internalType":"address"}],"anonymous":false},{"type":"event","name":"CampaignLive","inputs":[{"name":"campaign","type":"address","indexed":true,"internalType":"address"}],"anonymous":false},{"type":"event","name":"MilestoneProposed","inputs":[{"name":"campaign","type":"address","indexed":true,"internalType":"address"},{"name":"id","type":"uint256","indexed":true,"internalType":"uint256"},{"name":"proofCid","type":"string","indexed":false,"internalType":"string"},{"name":"amount","type":"uint256","indexed":false,"internalType":"uint256"}],"anonymous":false},{"type":"event","name":"MilestoneReleased","inputs":[{"name":"campaign","type":"address","indexed":true,"internalType":"address"},{"name":"id","type":"uint256","indexed":true,"internalType":"uint256"},{"name":"amount","type":"uint256","indexed":false,"internalType":"uint256"}],"anonymous":false},{"type":"error","name":"FailedDeployment","inputs":[]},{"type":"error","name":"InsufficientBalance","inputs":[{"name":"balance","type":"uint256","internalType":"uint256"},{"name":"needed","type":"uint256","internalType":"uint256"}]}],"bytecode":{"object":"0x60a0346100b057601f61062538819003918201601f19168301916001600160401b038311848410176100b4578084926060946040528339810103126100b057610047816100c8565b906100606040610059602084016100c8565b92016100c8565b6080929092525f80546001600160a01b039283166001600160a01b0319918216179091556001805492909316911617905560405161054890816100dd823960805181818161023c01526104270152f35b5f80fd5b634e487b7160e01b5f52604160045260245ffd5b51906001600160a01b03821682036100b05756fe6080806040526004361015610012575f80fd5b5f905f3560e01c9081630c340a2414610456575080633a4741bd146104125780635c401fd6146101ef5780635dee087b1461016c5780639a0b43bf14610125578063d33219b4146100fc5763e1e4aff81461006b575f80fd5b346100f95760203660031901126100f9576001600160a01b0361008c610478565b168033036100bb577ff9c44cdc7f223cbf7973f04a8e974fe255340e208a42c1a96a06697c12d5e35a8280a280f35b60405162461bcd60e51b815260206004820152601660248201527513db9b1e4818d85b5c185a59db8818d85b88195b5a5d60521b6044820152606490fd5b80fd5b50346100f957806003193601126100f9576001546040516001600160a01b039091168152602090f35b50346100f95760403660031901126100f9576040516024358152600435907fec9fc4d5b2f11dc2397296c640bb0b0cea9cb1c1ccf75842b42fa968227794cf60203392a380f35b50346100f95760603660031901126100f95760243567ffffffffffffffff81116101eb576101a16101b591369060040161048e565b9190604051926040845260408401916104f2565b60443560208301527f54c7b5926e0fa12d0f9bf73f478dbbaf3a2a9762714bd90f8c21bd5658ff82b0600435928033930390a380f35b5080fd5b50346103ff5760603660031901126103ff57610209610478565b60243567ffffffffffffffff81116103ff5761022990369060040161048e565b906e5af43d82803e903d91602b57fd5bf37f0000000000000000000000000000000000000000000000000000000000000000763d602d80600a3d3981f3363d3d373d3d3d363d7300000062ffffff8260881c16175f5260781b1760205260018060a01b03603760095ff016928315610403575f546001546001600160a01b039182169116853b156103ff576102f45f946040519687958695634acd10c760e01b8752336004880152602487015260018060a01b0316604486015260e0606486015260e48501916104f2565b9060848301523060a483015260443560c4830152038183865af180156103f4576103df575b5060405163e2fdcc1760e01b8152602081600481855afa9081156103d457839161038a575b6040838360018060a01b03167f1260f646519b6441128edda4528afcfbcf3e46959be8f7c3d85d50f62eda7c68606084518481528360208201523386820152a182519182526020820152f35b90506020813d6020116103cc575b816103a5602093836104bc565b810103126103c857516001600160a01b03811681036103c857604092505f61033e565b8280fd5b3d9150610398565b6040513d85823e3d90fd5b6103ec9192505f906104bc565b5f905f610319565b6040513d5f823e3d90fd5b5f80fd5b63b06ebf3d60e01b5f5260045ffd5b346103ff575f3660031901126103ff576040517f00000000000000000000000000000000000000000000000000000000000000006001600160a01b03168152602090f35b346103ff575f3660031901126103ff575f546001600160a01b03168152602090f35b600435906001600160a01b03821682036103ff57565b9181601f840112156103ff5782359167ffffffffffffffff83116103ff57602083818601950101116103ff57565b90601f8019910116810190811067ffffffffffffffff8211176104de57604052565b634e487b7160e01b5f52604160045260245ffd5b908060209392818452848401375f828201840152601f01601f191601019056fea2646970667358221220cb3165cc550dbc3fad3f232c208c20df1caec5917c72c2205628104c0d2cc74464736f6c63430008210033","linkReferences":{}},"methodIdentifiers":{"IMPLEMENTATION()":"3a4741bd","createCampaign(address,string,uint256)":"5c401fd6","emitCampaignLive(address)":"e1e4aff8","emitMilestoneProposed(uint256,string,uint256)":"5dee087b","emitMilestoneReleased(uint256,uint256)":"9a0b43bf","governor()":"0c340a24","timelock()":"d33219b4"},"id":84}