{"abi":[{"type":"function","name":"approveAndGoLive","inputs":[],"outputs":[],"stateMutability":"nonpayable"},{"type":"function","name":"creator","inputs":[],"outputs":[{"name":"","type":"address","internalType":"address"}],"stateMutability":"view"},{"type":"function","name":"donate","inputs":[{"name":"amount","type":"uint256","internalType":"uint256"}],"outputs":[],"stateMutability":"nonpayable"},{"type":"function","name":"escrow","inputs":[],"outputs":[{"name":"","type":"address","internalType":"contract MilestoneEscrow"}],"stateMutability":"view"},{"type":"function","name":"factory","inputs":[],"outputs":[{"name":"","type":"address","internalType":"address"}],"stateMutability":"view"},{"type":"function","name":"governor","inputs":[],"outputs":[{"name":"","type":"address","internalType":"address"}],"stateMutability":"view"},{"type":"function","name":"initialize","inputs":[{"name":"_creator","type":"address","internalType":"address"},{"name":"_governor","type":"address","internalType":"address"},{"name":"_stablecoin","type":"address","internalType":"address"},{"name":"_metadataCid","type":"string","internalType":"string"},{"name":"_timelock","type":"address","internalType":"address"},{"name":"_factory","type":"address","internalType":"address"},{"name":"_trustScore","type":"uint256","internalType":"uint256"}],"outputs":[],"stateMutability":"nonpayable"},{"type":"function","name":"isLive","inputs":[],"outputs":[{"name":"","type":"bool","internalType":"bool"}],"stateMutability":"view"},{"type":"function","name":"metadataCid","inputs":[],"outputs":[{"name":"","type":"string","internalType":"string"}],"stateMutability":"view"},{"type":"function","name":"milestones","inputs":[{"name":"","type":"uint256","internalType":"uint256"}],"outputs":[{"name":"proofCid","type":"string","internalType":"string"},{"name":"amount","type":"uint256","internalType":"uint256"},{"name":"released","type":"bool","internalType":"bool"}],"stateMutability":"view"},{"type":"function","name":"notifyMilestoneReleased","inputs":[{"name":"id","type":"uint256","internalType":"uint256"},{"name":"amount","type":"uint256","internalType":"uint256"}],"outputs":[],"stateMutability":"nonpayable"},{"type":"function","name":"proposeMilestone","inputs":[{"name":"proofCid","type":"string","internalType":"string"},{"name":"amount","type":"uint256","internalType":"uint256"}],"outputs":[],"stateMutability":"nonpayable"},{"type":"function","name":"raised","inputs":[],"outputs":[{"name":"","type":"uint256","internalType":"uint256"}],"stateMutability":"view"},{"type":"function","name":"releaseMilestone","inputs":[{"name":"id","type":"uint256","internalType":"uint256"}],"outputs":[],"stateMutability":"nonpayable"},{"type":"function","name":"stablecoin","inputs":[],"outputs":[{"name":"","type":"address","internalType":"contract IERC20"}],"stateMutability":"view"},{"type":"function","name":"timelock","inputs":[],"outputs":[{"name":"","type":"address","internalType":"address"}],"stateMutability":"view"},{"type":"function","name":"trustScore","inputs":[],"outputs":[{"name":"","type":"uint256","internalType":"uint256"}],"stateMutability":"view"},{"type":"event","name":"CampaignLive","inputs":[],"anonymous":false},{"type":"event","name":"Initialized","inputs":[{"name":"version","type":"uint64","indexed":false,"internalType":"uint64"}],"anonymous":false},{"type":"event","name":"MilestoneProposed","inputs":[{"name":"id","type":"uint256","indexed":true,"internalType":"uint256"},{"name":"proofCid","type":"string","indexed":false,"internalType":"string"},{"name":"amount","type":"uint256","indexed":false,"internalType":"uint256"}],"anonymous":false},{"type":"error","name":"InvalidInitialization","inputs":[]},{"type":"error","name":"NotInitializing","inputs":[]},{"type":"error","name":"SafeERC20FailedOperation","inputs":[{"name":"token","type":"address","internalType":"address"}]}],"bytecode":{"object":"0x6080806040523460155761225e908161001a8239f35b5f80fdfe6080806040526004361015610012575f80fd5b5f905f3560e01c90816302d05d3f14610eb7575080630c340a2414610e8f5780633078d99814610e72578063317debf514610df15780634acd10c71461094e578063a049f4e8146108b0578063a1e8870214610663578063b8f7a6651461063d578063c45a015514610614578063d33219b4146105eb578063e2fdcc17146105c2578063e89e4ed614610464578063e9cbd8221461043b578063f0ea4bfc146103a5578063f14faf6f14610282578063fb68913b146101c25763ff368581146100d9575f80fd5b346101bf57806003193601126101bf576040519080600354906100fb82610f07565b8085529160018116908115610198575060011461013b575b6101378461012381860382610f3f565b604051918291602083526020830190610f75565b0390f35b600381527fc2575a0e9e593c00f959f8c92f12db2869c3395a3b0502d05e2516446f71f85b939250905b80821061017e5750909150810160200161012382610113565b919260018160209254838588010152019101909291610165565b60ff191660208087019190915292151560051b850190920192506101239150839050610113565b80fd5b50346101bf5760403660031901126101bf576007546001600160a01b0316330361024f5760065481906001600160a01b0316803b1561024c57818091604460405180948193639a0b43bf60e01b8352600435600484015260243560248401525af18015610241576102305750f35b8161023a91610f3f565b6101bf5780f35b6040513d84823e3d90fd5b50fd5b60405162461bcd60e51b815260206004820152600b60248201526a4f6e6c7920657363726f7760a81b6044820152606490fd5b50346101bf5760203660031901126101bf576004359060ff60065460a01c1615610369576002546040516323b872dd60e01b8352336004523060245260448490526001600160a01b039091169260208360648180885af1600184511481161561034a575b8260405283606052156103365760075492935083926001600160a01b0316803b1561033157602483858193819563b6b55f2560e01b845260048401525af18015610241576102305750f35b505050fd5b635274afe760e01b83526004849052602483fd5b600181151661036057843b15153d1516166102e6565b823d85823e3d90fd5b60405162461bcd60e51b815260206004820152601460248201527343616d706169676e206973206e6f74206c69766560601b6044820152606490fd5b50346101bf57806003193601126101bf576007546040516001622bd50960e21b031981529190602090839060049082906001600160a01b03165afa90811561042f57906103f8575b602090604051908152f35b506020813d602011610427575b8161041260209383610f3f565b8101031261042357602090516103ed565b5f80fd5b3d9150610405565b604051903d90823e3d90fd5b50346101bf57806003193601126101bf576002546040516001600160a01b039091168152602090f35b50346101bf5760203660031901126101bf576004356008548110156105be576003906008835202807ff3f7a9fe364faab93b216da50a3214154f22a0a2b415b23a84c8169e8b636ee3019060405191838154916104c083610f07565b8086529260018116908115610596575060011461055a575b5050506104ea82610549940383610f3f565b60ff7ff3f7a9fe364faab93b216da50a3214154f22a0a2b415b23a84c8169e8b636ee57ff3f7a9fe364faab93b216da50a3214154f22a0a2b415b23a84c8169e8b636ee483015492015416604051938493606085526060850190610f75565b916020840152151560408301520390f35b908092955052602081205b8482106105805750820160200192506104ea826105496104d8565b6001816020925483858801015201910190610565565b6105499750869350602092506104ea94915060ff191682840152151560051b820101946104d8565b5080fd5b50346101bf57806003193601126101bf576007546040516001600160a01b039091168152602090f35b50346101bf57806003193601126101bf576005546040516001600160a01b039091168152602090f35b50346101bf57806003193601126101bf576006546040516001600160a01b039091168152602090f35b50346101bf57806003193601126101bf57602060ff60065460a01c166040519015158152f35b50346101bf5760403660031901126101bf5760043567ffffffffffffffff81116105be57610695903690600401610ed9565b8254909291602435916001600160a01b0316330361087c5760ff60065460a01c161561084c576007546001600160a01b0316803b15610848578360405180926350f4438160e11b82528183816106f0898c8a60048501610ffe565b03925af180156108245790849161082f575b5050600754604051638f4cf24760e01b81529190602090839060049082906001600160a01b03165afa9182156108245784926107f0575b505f1982019182116107dc578394827fa8dc57f62ffa9c64862029f28b93c4e4bb142bab078b7a67ffe8947a80bc2a696040518061077988868884610ffe565b0390a26006546001600160a01b031690813b156107d8578580946107c19660405197889687958694635dee087b60e01b86526004860152606060248601526064850191610fde565b90604483015203925af18015610241576102305750f35b8580fd5b634e487b7160e01b84526011600452602484fd5b9091506020813d60201161081c575b8161080c60209383610f3f565b810103126104235751905f610739565b3d91506107ff565b6040513d86823e3d90fd5b8161083991610f3f565b61084457825f610702565b8280fd5b8380fd5b60405162461bcd60e51b81526020600482015260086024820152674e6f74204c69766560c01b6044820152606490fd5b60405162461bcd60e51b815260206004820152600c60248201526b27b7363c9021b932b0ba37b960a11b6044820152606490fd5b50346101bf57806003193601126101bf576108d660018060a01b03600554163314610f99565b6006805460ff60a01b198116600160a01b1790915560405182917fca74f42aeabb0c8ce335bbec9e7b53e4189c7f6f7dbf61441946a72a28b15ba58380a16001600160a01b0316803b1561094a5781602481858094631c3c95ff60e31b83523060048401525af18015610241576102305750f35b5050fd5b50346101bf5760e03660031901126101bf576004356001600160a01b038116908190036105be576024356001600160a01b0381169190829003610844576044356001600160a01b038116908190036108485760643567ffffffffffffffff8111610ded576109c0903690600401610ed9565b6084356001600160a01b0381169190829003610de95760a4356001600160a01b0381169390849003610de5575f5160206122095f395f51905f52549660ff8860401c16159767ffffffffffffffff811680159081610ddd575b6001149081610dd3575b159081610dca575b50610dbb5767ffffffffffffffff1981166001175f5160206122095f395f51905f525588610d8f575b50866001600160601b0360a01b8a54161789556001600160601b0360a01b6001541617600155846001600160601b0360a01b6002541617600255826001600160601b0360a01b6005541617600555836001600160601b0360a01b600654161760065567ffffffffffffffff8211610d7b578190610ad2600354610f07565b601f8111610d03575b508890601f8311600114610c7f578992610c74575b50508160011b915f199060031b1c1916176003555b60c435600455604051936111ed938486019486861067ffffffffffffffff871117610c605792869592608095928a989561101c8739845260208401526040830152606082015203019082f08015610c5357600780546001600160a01b0319166001600160a01b0392831690811790915560025460405163095ea7b360e01b815260048101929092525f1960248301529092602092849260449284929091165af18015610c4857610c10575b50610bb85780f35b68ff0000000000000000195f5160206122095f395f51905f5254165f5160206122095f395f51905f52557fc7f505b2f371ae2175ee4913f4499e1f2633a7b5936321eed1cdaeb6115181d2602060405160018152a180f35b6020813d602011610c40575b81610c2960209383610f3f565b810103126108445751801515036105be575f610bb0565b3d9150610c1c565b6040513d85823e3d90fd5b50604051903d90823e3d90fd5b634e487b7160e01b89526041600452602489fd5b013590505f80610af0565b60038a527fc2575a0e9e593c00f959f8c92f12db2869c3395a3b0502d05e2516446f71f85b925090601f1984168a5b818110610ceb5750908460019594939210610cd2575b505050811b01600355610b05565b01355f19600384901b60f8161c191690555f8080610cc4565b91936020600181928787013581550195019201610cae565b82811115610adb5790915060038952601f830160051c9060208410610d73575b9080601f8594930160051c03908a5b828110610d40575050610adb565b8082017fc2575a0e9e593c00f959f8c92f12db2869c3395a3b0502d05e2516446f71f85b018c9055859450600101610d32565b899150610d23565b634e487b7160e01b88526041600452602488fd5b68ffffffffffffffffff191668010000000000000001175f5160206122095f395f51905f52555f610a54565b63f92ee8a960e01b8a5260048afd5b9050155f610a2b565b303b159150610a23565b8a9150610a19565b8780fd5b8680fd5b8480fd5b503461042357602036600319011261042357610e1860018060a01b03600554163314610f99565b6007546001600160a01b0316803b15610423575f809160246040518094819363317debf560e01b835260043560048401525af18015610e6757610e59575080f35b610e6591505f90610f3f565b005b6040513d5f823e3d90fd5b34610423575f366003190112610423576020600454604051908152f35b34610423575f366003190112610423576001546040516001600160a01b039091168152602090f35b34610423575f366003190112610423575f546001600160a01b03168152602090f35b9181601f840112156104235782359167ffffffffffffffff8311610423576020838186019501011161042357565b90600182811c92168015610f35575b6020831014610f2157565b634e487b7160e01b5f52602260045260245ffd5b91607f1691610f16565b90601f8019910116810190811067ffffffffffffffff821117610f6157604052565b634e487b7160e01b5f52604160045260245ffd5b805180835260209291819084018484015e5f828201840152601f01601f1916010190565b15610fa057565b60405162461bcd60e51b81526020600482015260166024820152754f6e6c7920476f7665726e6f722f54696d656c6f636b60501b6044820152606490fd5b908060209392818452848401375f828201840152601f01601f1916010190565b93929160209161101691604087526040870191610fde565b93015256fe6101203461017957601f6111ed38819003918201601f19168301916001600160401b0383118484101761017d578084926080946040528339810103126101795761004881610191565b9061005560208201610191565b9061006e606061006760408401610191565b9201610191565b9160017f9b779b17422d0df92223018b32b4d1fa46e071723d6817e2486d003becc55f00553315610166575f8054336001600160a01b0319821681178355604051969290916001600160a01b0316907f8be0079c531659141344cd1fd0a4f28419497f9722a3daafe3b4186f6b6457e09080a36001600160a01b031660805260a05260c0523360e0526101005261104790816101a68239608051818181610266015281816106c5015281816107f70152610950015260a05181818161020d01526109e9015260c05181818161070a015281816107a70152610ba8015260e051818181610a2c0152610c8d01526101005181610beb0152f35b631e4fbdf760e01b5f525f60045260245ffd5b5f80fd5b634e487b7160e01b5f52604160045260245ffd5b51906001600160a01b03821682036101795756fe6080806040526004361015610012575f80fd5b5f905f3560e01c9081631eb307d514610c7b575080632442e1cb14610c1a5780632dd3100014610bd6578063317debf5146108e25780635312ea8e14610793578063715018a6146107395780637aadef8b146106f457806382bfefc8146106af5780638da5cb5b146106885780638f4cf2471461066a578063a1e887021461034e578063b6b55f251461023c578063dd444718146101f7578063e33b7de3146101d9578063e89e4ed614610187578063f2fde38b146100f95763ff50abdc146100d9575f80fd5b346100f657806003193601126100f6576020600154604051908152f35b80fd5b50346100f65760203660031901126100f6576004356001600160a01b0381169081900361018357610128610fcb565b801561016f5781546001600160a01b03198116821783556001600160a01b03167f8be0079c531659141344cd1fd0a4f28419497f9722a3daafe3b4186f6b6457e08380a380f35b631e4fbdf760e01b82526004829052602482fd5b5080fd5b50346100f65760203660031901126100f657600435600354811015610183576101af90610cf8565b506101b981610dcd565b6101d560ff600260018501549401541660405193849384610cbc565b0390f35b50346100f657806003193601126100f6576020600254604051908152f35b50346100f657806003193601126100f6576040517f00000000000000000000000000000000000000000000000000000000000000006001600160a01b03168152602090f35b50346100f65760203660031901126100f657600435610259610f12565b610264811515610ed1565b7f00000000000000000000000000000000000000000000000000000000000000006040516323b872dd60e01b845233600452306024528260445260208460648180865af190600185511482161561032d575b604052836060521561031257506102cf81600154610eb0565b6001556040519081527f2da466a7b24304f47e87fa2e1e5a81b9831ce54fec19055ce277ca2f39ba42c460203392a260015f516020610ff25f395f51905f525580f35b635274afe760e01b83526001600160a01b0316600452602482fd5b90600181151661034557823b15153d151616906102b6565b503d84823e3d90fd5b50346100f65760403660031901126100f65760043567ffffffffffffffff8111610183573660238201121561018357806004013567ffffffffffffffff8111610666576024820191602482369201011161066657602435916103ae610fcb565b6103b9831515610ed1565b6001546103c884600254610eb0565b11610621576040516103d981610d7b565b601f19601f840116906040516103f26020840182610dab565b8481528484602083013786602086830101528152602081019085825260408101918783526003546801000000000000000081101561060d5780600161043a9201600355610cf8565b9290926105f9575180519067ffffffffffffffff82116105e55761045e8454610d43565b601f8111610593575b50602090601f831160011461052d576002949392918b9183610522575b50508160011b915f199060031b1c19161782555b516001820155019051151560ff80198354169116179055600354935f19850194851161050e5791606091849387847fa8dc57f62ffa9c64862029f28b93c4e4bb142bab078b7a67ffe8947a80bc2a699760405197889660408852816040890152838801378501015260208301528101030190a280f35b634e487b7160e01b86526011600452602486fd5b015190505f80610484565b848b52818b209190601f1984168c5b81811061057b575091600193918560029897969410610563575b505050811b018255610498565b01515f1960f88460031b161c191690555f8080610556565b9293602060018192878601518155019501930161053c565b8281111561046757848b5260208b20601f840160051c90602085106105dd575b81601f9101920160051c03908b5b8281106105cf575050610467565b808d600192840155016105c1565b8c91506105b3565b634e487b7160e01b8a52604160045260248afd5b634e487b7160e01b89526004899052602489fd5b634e487b7160e01b89526041600452602489fd5b60405162461bcd60e51b815260206004820152601a60248201527f4e6f7420656e6f7567682066756e6473206465706f73697465640000000000006044820152606490fd5b8280fd5b50346100f657806003193601126100f6576020600354604051908152f35b50346100f657806003193601126100f657546040516001600160a01b039091168152602090f35b50346100f657806003193601126100f6576040517f00000000000000000000000000000000000000000000000000000000000000006001600160a01b03168152602090f35b50346100f657806003193601126100f6576040517f00000000000000000000000000000000000000000000000000000000000000006001600160a01b03168152602090f35b50346100f657806003193601126100f657610752610fcb565b80546001600160a01b03198116825581906001600160a01b03167f8be0079c531659141344cd1fd0a4f28419497f9722a3daafe3b4186f6b6457e08280a380f35b50346100f65760203660031901126100f6577f00000000000000000000000000000000000000000000000000000000000000006004356001600160a01b03821633036108a4576107e1610f12565b6040516370a0823160e01b8152306004820152917f00000000000000000000000000000000000000000000000000000000000000006020846024816001600160a01b0385165afa93841561089957859461085f575b506108468361084b951015610e6d565b610f4a565b60015f516020610ff25f395f51905f525580f35b93506020843d602011610891575b8161087a60209383610dab565b8101031261088d57925192610846610836565b5f80fd5b3d915061086d565b6040513d87823e3d90fd5b60405162461bcd60e51b815260206004820152601660248201527513db9b1e481d1a5b595b1bd8dac818d85b8818d85b1b60521b6044820152606490fd5b503461088d57602036600319011261088d576004356108ff610f12565b5f546001600160a01b031633148015610ba4575b15610b7057600354811015610b345761092b81610cf8565b509060028201805460ff8116610afc576040516370a0823160e01b81523060048201527f00000000000000000000000000000000000000000000000000000000000000009490926020846024816001600160a01b038a165afa918215610ab25785945f93610abd575b506040927fefa981f9388f17167597c5fee4fc3d24b2b772263e1accbf61cfb2d219fc40f594926001806109e19401946109d2865480951015610e6d565b60ff1916179055600254610eb0565b600255610a127f00000000000000000000000000000000000000000000000000000000000000009687835491610f4a565b5481518181526001600160a01b03909616602087015294a27f00000000000000000000000000000000000000000000000000000000000000006001600160a01b031691823b1561088d5760445f9283604051958694859363fb68913b60e01b8552600485015260248401525af18015610ab257610a9f575b5060015f516020610ff25f395f51905f525580f35b610aab91505f90610dab565b5f5f610a8a565b6040513d5f823e3d90fd5b9450929091506020843d602011610af4575b81610adc60209383610dab565b8101031261088d5792518493929091906109e1610994565b3d9150610acf565b60405162461bcd60e51b815260206004820152601060248201526f105b1c9958591e481c995b19585cd95960821b6044820152606490fd5b60405162461bcd60e51b8152602060048201526014602482015273125b9d985b1a59081b5a5b195cdd1bdb9948125160621b6044820152606490fd5b60405162461bcd60e51b815260206004820152600c60248201526b155b985d5d1a1bdc9a5e995960a21b6044820152606490fd5b50337f00000000000000000000000000000000000000000000000000000000000000006001600160a01b031614610913565b3461088d575f36600319011261088d576040517f00000000000000000000000000000000000000000000000000000000000000006001600160a01b03168152602090f35b3461088d57602036600319011261088d57610c36600435610cf8565b50604051610c4381610d7b565b6101d56040610c5184610dcd565b9283815260ff60026001870154968760208501520154161515918291015260405193849384610cbc565b3461088d575f36600319011261088d577f00000000000000000000000000000000000000000000000000000000000000006001600160a01b03168152602090f35b91939260806020604093606086528051918291826060890152018387015e5f828287010152601f80199101168401019460208401521515910152565b600354811015610d2f5760035f81815291027fc2575a0e9e593c00f959f8c92f12db2869c3395a3b0502d05e2516446f71f85b0191565b634e487b7160e01b5f52603260045260245ffd5b90600182811c92168015610d71575b6020831014610d5d57565b634e487b7160e01b5f52602260045260245ffd5b91607f1691610d52565b6060810190811067ffffffffffffffff821117610d9757604052565b634e487b7160e01b5f52604160045260245ffd5b90601f8019910116810190811067ffffffffffffffff821117610d9757604052565b9060405191825f825492610de084610d43565b8084529360018116908115610e4b5750600114610e07575b50610e0592500383610dab565b565b90505f9291925260205f20905f915b818310610e2f575050906020610e05928201015f610df8565b6020919350806001915483858901015201910190918492610e16565b905060209250610e0594915060ff191682840152151560051b8201015f610df8565b15610e7457565b60405162461bcd60e51b8152602060048201526014602482015273496e73756666696369656e742062616c616e636560601b6044820152606490fd5b91908201809211610ebd57565b634e487b7160e01b5f52601160045260245ffd5b15610ed857565b60405162461bcd60e51b81526020600482015260126024820152710416d6f756e74206d757374206265203e20360741b6044820152606490fd5b60025f516020610ff25f395f51905f525414610f3b5760025f516020610ff25f395f51905f5255565b633ee5aeb560e01b5f5260045ffd5b916040519163a9059cbb60e01b5f5260018060a01b031660045260245260205f60448180865af19060015f5114821615610faa575b60405215610f8a5750565b635274afe760e01b5f9081526001600160a01b0391909116600452602490fd5b906001811516610fc257823b15153d15161690610f7f565b503d5f823e3d90fd5b5f546001600160a01b03163303610fde57565b63118cdaa760e01b5f523360045260245ffdfe9b779b17422d0df92223018b32b4d1fa46e071723d6817e2486d003becc55f00a26469706673582212208db238feb220f1c29e19f204240e6121c17978a154c2b120dc735e365136847f64736f6c63430008210033f0c57e16840df040f15088dc2f81fe391c3923bec73e23a9662efc9c229c6a00a264697066735822122052690bdffad6e1181c8d775f1f4cfb30a91e08e62868299ed319be6d01b5a0bc64736f6c63430008210033","linkReferences":{}},"methodIdentifiers":{"approveAndGoLive()":"a049f4e8","creator()":"02d05d3f","donate(uint256)":"f14faf6f","escrow()":"e2fdcc17","factory()":"c45a0155","governor()":"0c340a24","initialize(address,address,address,string,address,address,uint256)":"4acd10c7","isLive()":"b8f7a665","metadataCid()":"ff368581","milestones(uint256)":"e89e4ed6","notifyMilestoneReleased(uint256,uint256)":"fb68913b","proposeMilestone(string,uint256)":"a1e88702","raised()":"f0ea4bfc","releaseMilestone(uint256)":"317debf5","stablecoin()":"e9cbd822","timelock()":"d33219b4","trustScore()":"3078d998"},"id":83}