{"abi":[{"type":"constructor","inputs":[{"name":"_token","type":"address","internalType":"contract IVotes"},{"name":"_timelock","type":"address","internalType":"contract TimelockController"}],"stateMutability":"nonpayable"},{"type":"receive","stateMutability":"payable"},{"type":"function","name":"BALLOT_TYPEHASH","inputs":[],"outputs":[{"name":"","type":"bytes32","internalType":"bytes32"}],"stateMutability":"view"},{"type":"function","name":"CLOCK_MODE","inputs":[],"outputs":[{"name":"","type":"string","internalType":"string"}],"stateMutability":"view"},{"type":"function","name":"COUNTING_MODE","inputs":[],"outputs":[{"name":"","type":"string","internalType":"string"}],"stateMutability":"pure"},{"type":"function","name":"EXTENDED_BALLOT_TYPEHASH","inputs":[],"outputs":[{"name":"","type":"bytes32","internalType":"bytes32"}],"stateMutability":"view"},{"type":"function","name":"cancel","inputs":[{"name":"proposalId","type":"uint256","internalType":"uint256"}],"outputs":[],"stateMutability":"nonpayable"},{"type":"function","name":"cancel","inputs":[{"name":"targets","type":"address[]","internalType":"address[]"},{"name":"values","type":"uint256[]","internalType":"uint256[]"},{"name":"calldatas","type":"bytes[]","internalType":"bytes[]"},{"name":"descriptionHash","type":"bytes32","internalType":"bytes32"}],"outputs":[{"name":"","type":"uint256","internalType":"uint256"}],"stateMutability":"nonpayable"},{"type":"function","name":"castVote","inputs":[{"name":"proposalId","type":"uint256","internalType":"uint256"},{"name":"support","type":"uint8","internalType":"uint8"}],"outputs":[{"name":"","type":"uint256","internalType":"uint256"}],"stateMutability":"nonpayable"},{"type":"function","name":"castVoteBySig","inputs":[{"name":"proposalId","type":"uint256","internalType":"uint256"},{"name":"support","type":"uint8","internalType":"uint8"},{"name":"voter","type":"address","internalType":"address"},{"name":"signature","type":"bytes","internalType":"bytes"}],"outputs":[{"name":"","type":"uint256","internalType":"uint256"}],"stateMutability":"nonpayable"},{"type":"function","name":"castVoteWithReason","inputs":[{"name":"proposalId","type":"uint256","internalType":"uint256"},{"name":"support","type":"uint8","internalType":"uint8"},{"name":"reason","type":"string","internalType":"string"}],"outputs":[{"name":"","type":"uint256","internalType":"uint256"}],"stateMutability":"nonpayable"},{"type":"function","name":"castVoteWithReasonAndParams","inputs":[{"name":"proposalId","type":"uint256","internalType":"uint256"},{"name":"support","type":"uint8","internalType":"uint8"},{"name":"reason","type":"string","internalType":"string"},{"name":"params","type":"bytes","internalType":"bytes"}],"outputs":[{"name":"","type":"uint256","internalType":"uint256"}],"stateMutability":"nonpayable"},{"type":"function","name":"castVoteWithReasonAndParamsBySig","inputs":[{"name":"proposalId","type":"uint256","internalType":"uint256"},{"name":"support","type":"uint8","internalType":"uint8"},{"name":"voter","type":"address","internalType":"address"},{"name":"reason","type":"string","internalType":"string"},{"name":"params","type":"bytes","internalType":"bytes"},{"name":"signature","type":"bytes","internalType":"bytes"}],"outputs":[{"name":"","type":"uint256","internalType":"uint256"}],"stateMutability":"nonpayable"},{"type":"function","name":"clock","inputs":[],"outputs":[{"name":"","type":"uint48","internalType":"uint48"}],"stateMutability":"view"},{"type":"function","name":"eip712Domain","inputs":[],"outputs":[{"name":"fields","type":"bytes1","internalType":"bytes1"},{"name":"name","type":"string","internalType":"string"},{"name":"version","type":"string","internalType":"string"},{"name":"chainId","type":"uint256","internalType":"uint256"},{"name":"verifyingContract","type":"address","internalType":"address"},{"name":"salt","type":"bytes32","internalType":"bytes32"},{"name":"extensions","type":"uint256[]","internalType":"uint256[]"}],"stateMutability":"view"},{"type":"function","name":"execute","inputs":[{"name":"targets","type":"address[]","internalType":"address[]"},{"name":"values","type":"uint256[]","internalType":"uint256[]"},{"name":"calldatas","type":"bytes[]","internalType":"bytes[]"},{"name":"descriptionHash","type":"bytes32","internalType":"bytes32"}],"outputs":[{"name":"","type":"uint256","internalType":"uint256"}],"stateMutability":"payable"},{"type":"function","name":"execute","inputs":[{"name":"proposalId","type":"uint256","internalType":"uint256"}],"outputs":[],"stateMutability":"payable"},{"type":"function","name":"getProposalId","inputs":[{"name":"targets","type":"address[]","internalType":"address[]"},{"name":"values","type":"uint256[]","internalType":"uint256[]"},{"name":"calldatas","type":"bytes[]","internalType":"bytes[]"},{"name":"descriptionHash","type":"bytes32","internalType":"bytes32"}],"outputs":[{"name":"","type":"uint256","internalType":"uint256"}],"stateMutability":"view"},{"type":"function","name":"getVotes","inputs":[{"name":"account","type":"address","internalType":"address"},{"name":"timepoint","type":"uint256","internalType":"uint256"}],"outputs":[{"name":"","type":"uint256","internalType":"uint256"}],"stateMutability":"view"},{"type":"function","name":"getVotesWithParams","inputs":[{"name":"account","type":"address","internalType":"address"},{"name":"timepoint","type":"uint256","internalType":"uint256"},{"name":"params","type":"bytes","internalType":"bytes"}],"outputs":[{"name":"","type":"uint256","internalType":"uint256"}],"stateMutability":"view"},{"type":"function","name":"hasVoted","inputs":[{"name":"proposalId","type":"uint256","internalType":"uint256"},{"name":"account","type":"address","internalType":"address"}],"outputs":[{"name":"","type":"bool","internalType":"bool"}],"stateMutability":"view"},{"type":"function","name":"hashProposal","inputs":[{"name":"targets","type":"address[]","internalType":"address[]"},{"name":"values","type":"uint256[]","internalType":"uint256[]"},{"name":"calldatas","type":"bytes[]","internalType":"bytes[]"},{"name":"descriptionHash","type":"bytes32","internalType":"bytes32"}],"outputs":[{"name":"","type":"uint256","internalType":"uint256"}],"stateMutability":"pure"},{"type":"function","name":"name","inputs":[],"outputs":[{"name":"","type":"string","internalType":"string"}],"stateMutability":"view"},{"type":"function","name":"nonces","inputs":[{"name":"owner","type":"address","internalType":"address"}],"outputs":[{"name":"","type":"uint256","internalType":"uint256"}],"stateMutability":"view"},{"type":"function","name":"onERC1155BatchReceived","inputs":[{"name":"","type":"address","internalType":"address"},{"name":"","type":"address","internalType":"address"},{"name":"","type":"uint256[]","internalType":"uint256[]"},{"name":"","type":"uint256[]","internalType":"uint256[]"},{"name":"","type":"bytes","internalType":"bytes"}],"outputs":[{"name":"","type":"bytes4","internalType":"bytes4"}],"stateMutability":"nonpayable"},{"type":"function","name":"onERC1155Received","inputs":[{"name":"","type":"address","internalType":"address"},{"name":"","type":"address","internalType":"address"},{"name":"","type":"uint256","internalType":"uint256"},{"name":"","type":"uint256","internalType":"uint256"},{"name":"","type":"bytes","internalType":"bytes"}],"outputs":[{"name":"","type":"bytes4","internalType":"bytes4"}],"stateMutability":"nonpayable"},{"type":"function","name":"onERC721Received","inputs":[{"name":"","type":"address","internalType":"address"},{"name":"","type":"address","internalType":"address"},{"name":"","type":"uint256","internalType":"uint256"},{"name":"","type":"bytes","internalType":"bytes"}],"outputs":[{"name":"","type":"bytes4","internalType":"bytes4"}],"stateMutability":"nonpayable"},{"type":"function","name":"proposalCount","inputs":[],"outputs":[{"name":"","type":"uint256","internalType":"uint256"}],"stateMutability":"view"},{"type":"function","name":"proposalDeadline","inputs":[{"name":"proposalId","type":"uint256","internalType":"uint256"}],"outputs":[{"name":"","type":"uint256","internalType":"uint256"}],"stateMutability":"view"},{"type":"function","name":"proposalDetails","inputs":[{"name":"proposalId","type":"uint256","internalType":"uint256"}],"outputs":[{"name":"targets","type":"address[]","internalType":"address[]"},{"name":"values","type":"uint256[]","internalType":"uint256[]"},{"name":"calldatas","type":"bytes[]","internalType":"bytes[]"},{"name":"descriptionHash","type":"bytes32","internalType":"bytes32"}],"stateMutability":"view"},{"type":"function","name":"proposalDetailsAt","inputs":[{"name":"index","type":"uint256","internalType":"uint256"}],"outputs":[{"name":"proposalId","type":"uint256","internalType":"uint256"},{"name":"targets","type":"address[]","internalType":"address[]"},{"name":"values","type":"uint256[]","internalType":"uint256[]"},{"name":"calldatas","type":"bytes[]","internalType":"bytes[]"},{"name":"descriptionHash","type":"bytes32","internalType":"bytes32"}],"stateMutability":"view"},{"type":"function","name":"proposalEta","inputs":[{"name":"proposalId","type":"uint256","internalType":"uint256"}],"outputs":[{"name":"","type":"uint256","internalType":"uint256"}],"stateMutability":"view"},{"type":"function","name":"proposalNeedsQueuing","inputs":[{"name":"proposalId","type":"uint256","internalType":"uint256"}],"outputs":[{"name":"","type":"bool","internalType":"bool"}],"stateMutability":"view"},{"type":"function","name":"proposalProposer","inputs":[{"name":"proposalId","type":"uint256","internalType":"uint256"}],"outputs":[{"name":"","type":"address","internalType":"address"}],"stateMutability":"view"},{"type":"function","name":"proposalSnapshot","inputs":[{"name":"proposalId","type":"uint256","internalType":"uint256"}],"outputs":[{"name":"","type":"uint256","internalType":"uint256"}],"stateMutability":"view"},{"type":"function","name":"proposalThreshold","inputs":[],"outputs":[{"name":"","type":"uint256","internalType":"uint256"}],"stateMutability":"pure"},{"type":"function","name":"proposalVotes","inputs":[{"name":"proposalId","type":"uint256","internalType":"uint256"}],"outputs":[{"name":"againstVotes","type":"uint256","internalType":"uint256"},{"name":"forVotes","type":"uint256","internalType":"uint256"},{"name":"abstainVotes","type":"uint256","internalType":"uint256"}],"stateMutability":"view"},{"type":"function","name":"propose","inputs":[{"name":"targets","type":"address[]","internalType":"address[]"},{"name":"values","type":"uint256[]","internalType":"uint256[]"},{"name":"calldatas","type":"bytes[]","internalType":"bytes[]"},{"name":"description","type":"string","internalType":"string"}],"outputs":[{"name":"","type":"uint256","internalType":"uint256"}],"stateMutability":"nonpayable"},{"type":"function","name":"queue","inputs":[{"name":"targets","type":"address[]","internalType":"address[]"},{"name":"values","type":"uint256[]","internalType":"uint256[]"},{"name":"calldatas","type":"bytes[]","internalType":"bytes[]"},{"name":"descriptionHash","type":"bytes32","internalType":"bytes32"}],"outputs":[{"name":"","type":"uint256","internalType":"uint256"}],"stateMutability":"nonpayable"},{"type":"function","name":"queue","inputs":[{"name":"proposalId","type":"uint256","internalType":"uint256"}],"outputs":[],"stateMutability":"nonpayable"},{"type":"function","name":"quorum","inputs":[{"name":"timepoint","type":"uint256","internalType":"uint256"}],"outputs":[{"name":"","type":"uint256","internalType":"uint256"}],"stateMutability":"view"},{"type":"function","name":"quorumDenominator","inputs":[],"outputs":[{"name":"","type":"uint256","internalType":"uint256"}],"stateMutability":"view"},{"type":"function","name":"quorumNumerator","inputs":[{"name":"timepoint","type":"uint256","internalType":"uint256"}],"outputs":[{"name":"","type":"uint256","internalType":"uint256"}],"stateMutability":"view"},{"type":"function","name":"quorumNumerator","inputs":[],"outputs":[{"name":"","type":"uint256","internalType":"uint256"}],"stateMutability":"view"},{"type":"function","name":"relay","inputs":[{"name":"target","type":"address","internalType":"address"},{"name":"value","type":"uint256","internalType":"uint256"},{"name":"data","type":"bytes","internalType":"bytes"}],"outputs":[],"stateMutability":"payable"},{"type":"function","name":"setProposalThreshold","inputs":[{"name":"newProposalThreshold","type":"uint256","internalType":"uint256"}],"outputs":[],"stateMutability":"nonpayable"},{"type":"function","name":"setVotingDelay","inputs":[{"name":"newVotingDelay","type":"uint48","internalType":"uint48"}],"outputs":[],"stateMutability":"nonpayable"},{"type":"function","name":"setVotingPeriod","inputs":[{"name":"newVotingPeriod","type":"uint32","internalType":"uint32"}],"outputs":[],"stateMutability":"nonpayable"},{"type":"function","name":"state","inputs":[{"name":"proposalId","type":"uint256","internalType":"uint256"}],"outputs":[{"name":"","type":"uint8","internalType":"enum IGovernor.ProposalState"}],"stateMutability":"view"},{"type":"function","name":"supportsInterface","inputs":[{"name":"interfaceId","type":"bytes4","internalType":"bytes4"}],"outputs":[{"name":"","type":"bool","internalType":"bool"}],"stateMutability":"view"},{"type":"function","name":"timelock","inputs":[],"outputs":[{"name":"","type":"address","internalType":"address"}],"stateMutability":"view"},{"type":"function","name":"token","inputs":[],"outputs":[{"name":"","type":"address","internalType":"contract IERC5805"}],"stateMutability":"view"},{"type":"function","name":"updateQuorumNumerator","inputs":[{"name":"newQuorumNumerator","type":"uint256","internalType":"uint256"}],"outputs":[],"stateMutability":"nonpayable"},{"type":"function","name":"updateTimelock","inputs":[{"name":"newTimelock","type":"address","internalType":"contract TimelockController"}],"outputs":[],"stateMutability":"nonpayable"},{"type":"function","name":"version","inputs":[],"outputs":[{"name":"","type":"string","internalType":"string"}],"stateMutability":"view"},{"type":"function","name":"votingDelay","inputs":[],"outputs":[{"name":"","type":"uint256","internalType":"uint256"}],"stateMutability":"view"},{"type":"function","name":"votingPeriod","inputs":[],"outputs":[{"name":"","type":"uint256","internalType":"uint256"}],"stateMutability":"view"},{"type":"event","name":"EIP712DomainChanged","inputs":[],"anonymous":false},{"type":"event","name":"ProposalCanceled","inputs":[{"name":"proposalId","type":"uint256","indexed":false,"internalType":"uint256"}],"anonymous":false},{"type":"event","name":"ProposalCreated","inputs":[{"name":"proposalId","type":"uint256","indexed":false,"internalType":"uint256"},{"name":"proposer","type":"address","indexed":false,"internalType":"address"},{"name":"targets","type":"address[]","indexed":false,"internalType":"address[]"},{"name":"values","type":"uint256[]","indexed":false,"internalType":"uint256[]"},{"name":"signatures","type":"string[]","indexed":false,"internalType":"string[]"},{"name":"calldatas","type":"bytes[]","indexed":false,"internalType":"bytes[]"},{"name":"voteStart","type":"uint256","indexed":false,"internalType":"uint256"},{"name":"voteEnd","type":"uint256","indexed":false,"internalType":"uint256"},{"name":"description","type":"string","indexed":false,"internalType":"string"}],"anonymous":false},{"type":"event","name":"ProposalExecuted","inputs":[{"name":"proposalId","type":"uint256","indexed":false,"internalType":"uint256"}],"anonymous":false},{"type":"event","name":"ProposalQueued","inputs":[{"name":"proposalId","type":"uint256","indexed":false,"internalType":"uint256"},{"name":"etaSeconds","type":"uint256","indexed":false,"internalType":"uint256"}],"anonymous":false},{"type":"event","name":"ProposalThresholdSet","inputs":[{"name":"oldProposalThreshold","type":"uint256","indexed":false,"internalType":"uint256"},{"name":"newProposalThreshold","type":"uint256","indexed":false,"internalType":"uint256"}],"anonymous":false},{"type":"event","name":"QuorumNumeratorUpdated","inputs":[{"name":"oldQuorumNumerator","type":"uint256","indexed":false,"internalType":"uint256"},{"name":"newQuorumNumerator","type":"uint256","indexed":false,"internalType":"uint256"}],"anonymous":false},{"type":"event","name":"TimelockChange","inputs":[{"name":"oldTimelock","type":"address","indexed":false,"internalType":"address"},{"name":"newTimelock","type":"address","indexed":false,"internalType":"address"}],"anonymous":false},{"type":"event","name":"VoteCast","inputs":[{"name":"voter","type":"address","indexed":true,"internalType":"address"},{"name":"proposalId","type":"uint256","indexed":false,"internalType":"uint256"},{"name":"support","type":"uint8","indexed":false,"internalType":"uint8"},{"name":"weight","type":"uint256","indexed":false,"internalType":"uint256"},{"name":"reason","type":"string","indexed":false,"internalType":"string"}],"anonymous":false},{"type":"event","name":"VoteCastWithParams","inputs":[{"name":"voter","type":"address","indexed":true,"internalType":"address"},{"name":"proposalId","type":"uint256","indexed":false,"internalType":"uint256"},{"name":"support","type":"uint8","indexed":false,"internalType":"uint8"},{"name":"weight","type":"uint256","indexed":false,"internalType":"uint256"},{"name":"reason","type":"string","indexed":false,"internalType":"string"},{"name":"params","type":"bytes","indexed":false,"internalType":"bytes"}],"anonymous":false},{"type":"event","name":"VotingDelaySet","inputs":[{"name":"oldVotingDelay","type":"uint256","indexed":false,"internalType":"uint256"},{"name":"newVotingDelay","type":"uint256","indexed":false,"internalType":"uint256"}],"anonymous":false},{"type":"event","name":"VotingPeriodSet","inputs":[{"name":"oldVotingPeriod","type":"uint256","indexed":false,"internalType":"uint256"},{"name":"newVotingPeriod","type":"uint256","indexed":false,"internalType":"uint256"}],"anonymous":false},{"type":"error","name":"CheckpointUnorderedInsertion","inputs":[]},{"type":"error","name":"FailedCall","inputs":[]},{"type":"error","name":"GovernorAlreadyCastVote","inputs":[{"name":"voter","type":"address","internalType":"address"}]},{"type":"error","name":"GovernorAlreadyQueuedProposal","inputs":[{"name":"proposalId","type":"uint256","internalType":"uint256"}]},{"type":"error","name":"GovernorDisabledDeposit","inputs":[]},{"type":"error","name":"GovernorInsufficientProposerVotes","inputs":[{"name":"proposer","type":"address","internalType":"address"},{"name":"votes","type":"uint256","internalType":"uint256"},{"name":"threshold","type":"uint256","internalType":"uint256"}]},{"type":"error","name":"GovernorInvalidProposalLength","inputs":[{"name":"targets","type":"uint256","internalType":"uint256"},{"name":"calldatas","type":"uint256","internalType":"uint256"},{"name":"values","type":"uint256","internalType":"uint256"}]},{"type":"error","name":"GovernorInvalidQuorumFraction","inputs":[{"name":"quorumNumerator","type":"uint256","internalType":"uint256"},{"name":"quorumDenominator","type":"uint256","internalType":"uint256"}]},{"type":"error","name":"GovernorInvalidSignature","inputs":[{"name":"voter","type":"address","internalType":"address"}]},{"type":"error","name":"GovernorInvalidVoteParams","inputs":[]},{"type":"error","name":"GovernorInvalidVoteType","inputs":[]},{"type":"error","name":"GovernorInvalidVotingPeriod","inputs":[{"name":"votingPeriod","type":"uint256","internalType":"uint256"}]},{"type":"error","name":"GovernorNonexistentProposal","inputs":[{"name":"proposalId","type":"uint256","internalType":"uint256"}]},{"type":"error","name":"GovernorNotQueuedProposal","inputs":[{"name":"proposalId","type":"uint256","internalType":"uint256"}]},{"type":"error","name":"GovernorOnlyExecutor","inputs":[{"name":"account","type":"address","internalType":"address"}]},{"type":"error","name":"GovernorQueueNotImplemented","inputs":[]},{"type":"error","name":"GovernorRestrictedProposer","inputs":[{"name":"proposer","type":"address","internalType":"address"}]},{"type":"error","name":"GovernorUnableToCancel","inputs":[{"name":"proposalId","type":"uint256","internalType":"uint256"},{"name":"account","type":"address","internalType":"address"}]},{"type":"error","name":"GovernorUnexpectedProposalState","inputs":[{"name":"proposalId","type":"uint256","internalType":"uint256"},{"name":"current","type":"uint8","internalType":"enum IGovernor.ProposalState"},{"name":"expectedStates","type":"bytes32","internalType":"bytes32"}]},{"type":"error","name":"InvalidAccountNonce","inputs":[{"name":"account","type":"address","internalType":"address"},{"name":"currentNonce","type":"uint256","internalType":"uint256"}]},{"type":"error","name":"InvalidShortString","inputs":[]},{"type":"error","name":"SafeCastOverflowedUintDowncast","inputs":[{"name":"bits","type":"uint8","internalType":"uint8"},{"name":"value","type":"uint256","internalType":"uint256"}]},{"type":"error","name":"StringTooLong","inputs":[{"name":"str","type":"string","internalType":"string"}]}],"bytecode":{"object":"0x610180604052346100a05761001b610015610102565b9061016e565b6040516140c29081610a33823960805181613ae0015260a05181613b97015260c05181613aaa015260e05181613b2f01526101005181613b5501526101205181611192015261014051816111be01526101605181818161141a0152818161194f01528181611a87015281816122a8015281816126ba015281816127fd0152612c130152f35b5f80fd5b634e487b7160e01b5f52604160045260245ffd5b601f909101601f19168101906001600160401b038211908210176100db57604052565b6100a4565b604051906100ef6040836100b8565b565b6001600160a01b038116036100a057565b614af59060408238039283825194859261011c82856100b8565b8339810103126100a0576020825192610134846100f1565b015191610140836100f1565b9190565b604051906101536040836100b8565b600a8252565b604051906101686040836100b8565b60018252565b906100ef9161023661017e610144565b602081016926bca3b7bb32b93737b960b11b815261019a610159565b906020820190603160f81b82526101b0846105bb565b610120526101bd836106ab565b6101405283519020918260e05251902080610100524660a0526040519060208201927f8b73c3c69bb8fe3d512ecc4cf759cc79239f7b179b0ffacaa9a75d522b39400f8452604083015260608201524660808201523060a082015260a0815261022760c0826100b8565b5190206080523060c0526102fe565b61023e6104e3565b61024661052e565b61024e610582565b6001600160a01b031661016052610263610436565b6103e3565b90600182811c92168015610296575b602083101461028257565b634e487b7160e01b5f52602260045260245ffd5b91607f1691610277565b919091601f83116102b1575b505050565b8183116102bd57505050565b5f5260205f206020601f830160051c92106102f6575b81601f9101920160051c03905f5b828110156102ac575f828201556001016102e1565b5f91506102d3565b80519091906001600160401b0381116100db5761032781610320600354610268565b60036102a0565b602092601f821160011461036757610357929382915f9261035c575b50508160011b915f199060031b1c19161790565b600355565b015190505f80610343565b60035f52601f198216937fc2575a0e9e593c00f959f8c92f12db2869c3395a3b0502d05e2516446f71f85b915f5b8681106103cb57508360019596106103b3575b505050811b01600355565b01515f1960f88460031b161c191690555f80806103a8565b91926020600181928685015181550194019201610395565b600d54604080516001600160a01b03808416825290931660208401819052927f08f74ea46ef7894f65eabfb5e6e695de773a000b47c529ab559178069b2264019190a16001600160a01b03191617600d55565b600c548061049657505f5b6001600160d01b031661045261079d565b7f0553476bf02ef2726e8ce5ced78d63e26e602e4a2257b1f559418e24b4633997916004916104829083906108fe565b5050604080519182526020820192909252a1565b805f198101116104cf57600c5f527fdf6966c971051c3d54ec59162606531493a51404a002842f56009d7e5cf4a8c6015460301c610441565b634e487b7160e01b5f52601160045260245ffd5b60016008547fc565b045403dc03c2eea82b81a0465edad9e2e7fc4d97e11421c209da93d7a936040805165ffffffffffff84168152846020820152a165ffffffffffff191617600855565b66190000000000006008547f7e3f7f0708a84de9203036abaa450dccc85ad5ff52f78c170f3edb55cf5e88286040805163ffffffff8460301c16815260196020820152a163ffffffff60301b191617600855565b600754604080519182525f60208301527fccb45da8d5717e6c4544694297c4ba5cf151d455c9bb0ed4fc7a38411bc0546191a15f600755565b908151602081105f146105d65750906105d39061081e565b90565b6001600160401b0381116100db576105f8816105f25f54610268565b5f6102a0565b602092601f821160011461062e57610627929382915f9261035c5750508160011b915f199060031b1c19161790565b5f5560ff90565b5f8052601f198216937f290decd9548b62a8d60345a988386fc84ba6bc95484008f6362f93160ef3e563915f5b868110610693575083600195961061067b575b505050811b015f5560ff90565b01515f1960f88460031b161c191690555f808061066e565b9192602060018192868501518155019401920161065b565b908151602081105f146106c35750906105d39061081e565b6001600160401b0381116100db576106e7816106e0600154610268565b60016102a0565b602092601f821160011461071e57610716929382915f9261035c5750508160011b915f199060031b1c19161790565b60015560ff90565b60015f52601f198216937fb10e2d527612073b26eecdfd717e6a320cf44b4afac2b0732d9fcbe2b7fa0cf6915f5b868110610785575083600195961061076d575b505050811b0160015560ff90565b01515f1960f88460031b161c191690555f808061075f565b9192602060018192868501518155019401920161074c565b610160516040516324776b7d60e21b815290602090829060049082906001600160a01b03165afa5f91816107db575b506105d357506105d343610a03565b9091506020813d602011610816575b816107f7602093836100b8565b810103126100a0575165ffffffffffff811681036100a057905f6107cc565b3d91506107ea565b601f81511161084957602081519101516020821061083a571790565b5f198260200360031b1b161790565b604460209160405192839163305a27a960e01b83528160048401528051918291826024860152018484015e5f828201840152601f01601f19168101030190fd5b5f198101919082116104cf57565b908154680100000000000000008110156100db57600181018084558110156108ea575f9283526020928390208251929093015160301b65ffffffffffff191665ffffffffffff9290921691909117910155565b634e487b7160e01b5f52603260045260245ffd5b600c5491929180156109da5761091661093f91610889565b600c5f527fdf6966c971051c3d54ec59162606531493a51404a002842f56009d7e5cf4a8c70190565b90815461095b6109548265ffffffffffff1690565b9160301c90565b9265ffffffffffff8084169216918083116109cb578692036109955761014092509065ffffffffffff82549181199060301b169116179055565b5050610140906109b46109a66100e0565b65ffffffffffff9092168252565b6001600160d01b03851660208201525b600c610897565b632520601d60e01b5f5260045ffd5b506109fe906109ea6109a66100e0565b6001600160d01b03841660208201526109c4565b5f9190565b65ffffffffffff8111610a1b5765ffffffffffff1690565b6306dfcc6560e41b5f52603060045260245260445ffdfe60806040526004361015610022575b3615610018575f80fd5b61002061286e565b005b5f3560e01c806301ffc9a71461038c57806302a251a31461038757806306f3f9e61461038257806306fdde031461037d578063143489d014610378578063150b7a0214610373578063160cbed71461036e57806316e9eaec146103695780632656227d146103645780632d63f6931461035f5780632e82db941461035a5780632fe3e261146103555780633932abb1146103505780633e4f49e61461034b57806340e58ee5146103465780634385963214610341578063452115d61461033c5780634bf5d7e914610337578063544ffc9c1461033257806354fd4d501461032d57806356781388146103285780635b8d0e0d146103235780635f398a141461031e57806360c4247f1461031957806379051887146103145780637b3c71d31461030f5780637d5e81e21461030a5780637ecebe001461030557806384b0196e146103005780638ff262e3146102fb57806391ddadf4146102f657806397c3d334146102f15780639a802a6d146102ec578063a7713a70146102e7578063a890c910146102e2578063a8f8a668146102bf578063a9a95294146102dd578063ab58fb8e146102d8578063b58131b0146102d3578063bc197c81146102ce578063c01f9e37146102c9578063c28bc2fa146102c4578063c59057e4146102bf578063d33219b4146102ba578063da35c664146102b5578063dd4e2ba5146102b0578063ddf0b009146102ab578063deaaa7cc146102a6578063e540d01d146102a1578063eb9019d41461029c578063ece40cc114610297578063f23a6e6114610292578063f8ce560a1461028d578063fc0c546a146102885763fe0d94c10361000e57611ab6565b611a72565b611a54565b6119e7565b611992565b6118ed565b611847565b61180d565b6117bb565b61175c565b61173f565b611717565b611535565b611685565b611667565b6115ba565b6115a0565b61156d565b611551565b6114bd565b611492565b6113a8565b61138d565b611363565b61124a565b61117a565b61113f565b611091565b61103c565b610fca565b610f9c565b610f1c565b610e76565b610e10565b610dbd565b610d7c565b610d4d565b610d31565b610cdc565b610c70565b610c41565b610beb565b610bb1565b610b10565b610adb565b610ac4565b610a95565b61096b565b610727565b61061e565b610544565b610446565b610420565b346104125760203660031901126104125760043563ffffffff60e01b8116809103610412576366defe7760e11b8114908115610401575b81156103f0575b81156103df575b506040519015158152602090f35b6301ffc9a760e01b1490505f6103d1565b630271189760e51b811491506103ca565b6332a2ad4360e11b811491506103c3565b5f80fd5b5f91031261041257565b34610412575f36600319011261041257602063ffffffff60085460301c16604051908152f35b3461041257602036600319011261041257600435610462612884565b606481116104f5576001600160d01b0361047a612e61565b16906104846126a5565b916001600160d01b0382116104dd577f0553476bf02ef2726e8ce5ced78d63e26e602e4a2257b1f559418e24b4633997926104c9906001600160d01b03841690613983565b5050604080519182526020820192909252a1005b506306dfcc6560e41b5f5260d060045260245260445ffd5b63243e544560e01b5f52600452606460245260445ffd5b805180835260209291819084018484015e5f828201840152601f01601f1916010190565b90602061054192818152019061050c565b90565b34610412575f366003190112610412576040515f60035461056481611b03565b80845290600181169081156105fa575060011461059c575b6105988361058c81850382610675565b60405191829182610530565b0390f35b60035f9081527fc2575a0e9e593c00f959f8c92f12db2869c3395a3b0502d05e2516446f71f85b939250905b8082106105e05750909150810160200161058c61057c565b9192600181602092548385880101520191019092916105c8565b60ff191660208086019190915291151560051b8401909101915061058c905061057c565b34610412576020366003190112610412576004355f526004602052602060018060a01b0360405f205416604051908152f35b6001600160a01b0381160361041257565b634e487b7160e01b5f52604160045260245ffd5b90601f801991011681019081106001600160401b0382111761069657604052565b610661565b604051906106aa608083610675565b565b604051906106aa604083610675565b6001600160401b03811161069657601f01601f191660200190565b9291926106e2826106bb565b916106f06040519384610675565b829481845281830111610412578281602093845f960137010152565b9080601f8301121561041257816020610541933591016106d6565b3461041257608036600319011261041257610743600435610650565b61074e602435610650565b6064356001600160401b0381116104125761076d90369060040161070c565b50600d54306001600160a01b039091160361079457604051630a85bd0160e11b8152602090f35b637485328f60e11b5f5260045ffd5b6001600160401b0381116106965760051b60200190565b9080601f830112156104125781356107d1816107a3565b926107df6040519485610675565b81845260208085019260051b82010192831161041257602001905b8282106108075750505090565b60208091833561081681610650565b8152019101906107fa565b9080601f83011215610412578135610838816107a3565b926108466040519485610675565b81845260208085019260051b82010192831161041257602001905b82821061086e5750505090565b8135815260209182019101610861565b9080601f83011215610412578135610895816107a3565b926108a36040519485610675565b81845260208085019260051b820101918383116104125760208201905b8382106108cf57505050505090565b81356001600160401b038111610412576020916108f18784809488010161070c565b8152019101906108c0565b6080600319820112610412576004356001600160401b0381116104125781610926916004016107ba565b916024356001600160401b038111610412578261094591600401610821565b91604435906001600160401b038211610412576109649160040161087e565b9060643590565b3461041257602061098761097e366108fc565b92919091611bbc565b604051908152f35b90602080835192838152019201905f5b8181106109ac5750505090565b82516001600160a01b031684526020938401939092019160010161099f565b90602080835192838152019201905f5b8181106109e85750505090565b82518452602093840193909201916001016109db565b9080602083519182815201916020808360051b8301019401925f915b838310610a2957505050505090565b9091929394602080610a47600193601f19868203018752895161050c565b97019301930191939290610a1a565b949392610a82606093610a74610a909460808a5260808a019061098f565b9088820360208a01526109cb565b9086820360408801526109fe565b930152565b3461041257602036600319011261041257610598610ab4600435611ece565b9060409492945194859485610a56565b6020610987610ad2366108fc565b92919091611f86565b34610412576020366003190112610412576004355f526004602052602065ffffffffffff60405f205460a01c16604051908152f35b3461041257602036600319011261041257600435600a54811015610bac57610b9490600a5f527fc65a7bb8d6351c1cf70c95a316cc6a92839c986682d98bc35f958f4883f9d2a80154610ba2610b6582611ece565b9392959091610b86604051978897885260a0602089015260a088019061098f565b9086820360408801526109cb565b9084820360608601526109fe565b9060808301520390f35b611f5e565b34610412575f3660031901126104125760206040517f3e83946653575f9a39005e1545185629e92736b7528ab20ca3816f315424a8118152f35b34610412575f36600319011261041257602065ffffffffffff60085416604051908152f35b634e487b7160e01b5f52602160045260245ffd5b60081115610c2e57565b610c10565b6008811015610c2e57602452565b3461041257602036600319011261041257610c5d600435612a26565b6040516008821015610c2e576020918152f35b3461041257602036600319011261041257600435805f52600b60205260405f206003810154908115610cc9576100209250610caa81611dd1565b90610cc36002610cbc60018401611e22565b9201611e6a565b916120de565b82636ad0607560e01b5f5260045260245ffd5b3461041257604036600319011261041257602060ff610d25602435600435610d0382610650565b5f5260098452600360405f20019060018060a01b03165f5260205260405f2090565b54166040519015158152f35b34610412576020610987610d44366108fc565b929190916120de565b34610412575f36600319011261041257610598610d68612294565b60405191829160208352602083019061050c565b34610412576020366003190112610412576004355f526009602052606060405f20805490600260018201549101549060405192835260208301526040820152f35b34610412575f36600319011261041257610598604051610dde604082610675565b60018152603160f81b602082015260405191829160208352602083019061050c565b6024359060ff8216820361041257565b34610412576040366003190112610412576020610987600435610e31610e00565b60405191610e3f8584610675565b5f83523390612b2f565b9181601f84011215610412578235916001600160401b038311610412576020838186019501011161041257565b346104125760c036600319011261041257600435610e92610e00565b9060443590610ea082610650565b6064356001600160401b03811161041257610ebf903690600401610e49565b6084356001600160401b03811161041257610ede90369060040161070c565b9160a435946001600160401b0386116104125761059896610f06610f0c97369060040161070c565b95612363565b6040519081529081906020820190565b3461041257608036600319011261041257600435610f38610e00565b906044356001600160401b03811161041257610f58903690600401610e49565b9190926064356001600160401b03811161041257610f9194610f81610f8992369060040161070c565b9436916106d6565b913390612bac565b604051908152602090f35b34610412576020366003190112610412576020610987600435612ce7565b65ffffffffffff81160361041257565b3461041257602036600319011261041257600435610fe781610fba565b610fef612884565b6008547fc565b045403dc03c2eea82b81a0465edad9e2e7fc4d97e11421c209da93d7a93604065ffffffffffff81519481851686521693846020820152a165ffffffffffff191617600855005b3461041257606036600319011261041257600435611058610e00565b90604435906001600160401b03821161041257602092611089611082610987943690600401610e49565b36916106d6565b913390612b2f565b34610412576080366003190112610412576004356001600160401b038111610412576110c19036906004016107ba565b6024356001600160401b038111610412576110e0903690600401610821565b906044356001600160401b0381116104125761110090369060040161087e565b90606435916001600160401b03831161041257366023840112156104125761059893611139610f0c9436906024816004013591016106d6565b92612467565b346104125760203660031901126104125760043561115c81610650565b60018060a01b03165f526002602052602060405f2054604051908152f35b34610412575f3660031901126104125761121c6111b67f000000000000000000000000000000000000000000000000000000000000000061382a565b6105986111e27f0000000000000000000000000000000000000000000000000000000000000000613882565b61122a604051916111f4602084610675565b5f808452366020850137604051958695600f60f81b875260e0602088015260e087019061050c565b90858203604087015261050c565b904660608501523060808501525f60a085015283820360c08501526109cb565b3461041257608036600319011261041257600435611266610e00565b906044359161127483610650565b6064356001600160401b0381116104125761132761129961132b92369060040161070c565b6001600160a01b0386165f9081526002602052604090208054600181019091556113219060405160208101917ff2aad550cf55f045cb27e9c559f9889fdfb6e6cdaa032301d6ea397784ae51d7835288604083015260ff8816606083015260018060a01b038a16608083015260a082015260a0815261131960c082610675565b51902061321a565b8661324a565b1590565b6113465790610f0c9161059893611340612245565b92612b2f565b6394ab6c0760e01b5f526001600160a01b03831660045260245b5ffd5b34610412575f36600319011261041257602061137d6126a5565b65ffffffffffff60405191168152f35b34610412575f36600319011261041257602060405160648152f35b34610412576060366003190112610412576004356113c581610650565b6024356044356001600160401b038111610412576113e790369060040161070c565b50604051630748d63560e31b81526001600160a01b039283166004820152602481019190915290602090829060449082907f0000000000000000000000000000000000000000000000000000000000000000165afa801561148d57610598915f9161145e575b506040519081529081906020820190565b611480915060203d602011611486575b6114788183610675565b8101906127d1565b5f61144d565b503d61146e565b61223a565b34610412575f3660031901126104125760206001600160d01b036114b4612e61565b16604051908152f35b34610412576020366003190112610412576004356114da81610650565b6114e2612884565b600d54604080516001600160a01b03808416825290931660208401819052927f08f74ea46ef7894f65eabfb5e6e695de773a000b47c529ab559178069b2264019190a16001600160a01b03191617600d55005b34610412576020610987611548366108fc565b929190916127a3565b3461041257602036600319011261041257602060405160018152f35b346104125760203660031901126104125760206109876004355f52600460205265ffffffffffff600160405f2001541690565b34610412575f3660031901126104125760206040515f8152f35b346104125760a0366003190112610412576115d6600435610650565b6115e1602435610650565b6044356001600160401b03811161041257611600903690600401610821565b506064356001600160401b03811161041257611620903690600401610821565b506084356001600160401b0381116104125761164090369060040161070c565b5061059861164c612738565b6040516001600160e01b031990911681529081906020820190565b34610412576020366003190112610412576020610987600435612757565b60603660031901126104125760043561169d81610650565b6024356044356001600160401b03811161041257610020925f926116c684933690600401610e49565b91906116d0612884565b826040519384928337810185815203925af13d1561170f573d906116f3826106bb565b916117016040519384610675565b82523d5f602084013e612ea5565b606090612ea5565b34610412575f36600319011261041257600d546040516001600160a01b039091168152602090f35b34610412575f366003190112610412576020600a54604051908152f35b34610412575f3660031901126104125761059860405161177d604082610675565b602081527f737570706f72743d627261766f2671756f72756d3d666f722c6162737461696e602082015260405191829160208352602083019061050c565b3461041257602036600319011261041257600435805f52600b60205260405f206003810154908115610cc95761002092506117f581611dd1565b906118076002610cbc60018401611e22565b91611bbc565b34610412575f3660031901126104125760206040517ff2aad550cf55f045cb27e9c559f9889fdfb6e6cdaa032301d6ea397784ae51d78152f35b346104125760203660031901126104125760043563ffffffff81169081810361041257611872612884565b81156118da5769ffffffff000000000000907f7e3f7f0708a84de9203036abaa450dccc85ad5ff52f78c170f3edb55cf5e882860406008549481519063ffffffff8760301c1682526020820152a160301b169069ffffffff0000000000001916176008555f80f35b63f1cfbf0560e01b5f525f60045260245ffd5b346104125760403660031901126104125760043561190a81610650565b6024355f60405161191c602082610675565b52604051630748d63560e31b81526001600160a01b039283166004820152602481019190915290602090829060449082907f0000000000000000000000000000000000000000000000000000000000000000165afa801561148d57610598915f9161145e57506040519081529081906020820190565b34610412576020366003190112610412576004356119ae612884565b60075460408051918252602082018390527fccb45da8d5717e6c4544694297c4ba5cf151d455c9bb0ed4fc7a38411bc0546191a1600755005b346104125760a036600319011261041257611a03600435610650565b611a0e602435610650565b6084356001600160401b03811161041257611a2d90369060040161070c565b50600d54306001600160a01b03909116036107945760405163f23a6e6160e01b8152602090f35b346104125760203660031901126104125760206109876004356127e0565b34610412575f366003190112610412576040517f00000000000000000000000000000000000000000000000000000000000000006001600160a01b03168152602090f35b602036600319011261041257600435805f52600b60205260405f206003810154908115610cc9576100209250611aeb81611dd1565b90611afd6002610cbc60018401611e22565b91611f86565b90600182811c92168015611b31575b6020831014611b1d57565b634e487b7160e01b5f52602260045260245ffd5b91607f1691611b12565b5f9291815491611b4a83611b03565b8083529260018116908115611b9f5750600114611b6657505050565b5f9081526020812093945091925b838310611b85575060209250010190565b600181602092949394548385870101520191019190611b74565b915050602093945060ff929192191683830152151560051b010190565b92909192611bcc828585846127a3565b93611bd68561292c565b50600d54611bf4906001600160a01b03165b6001600160a01b031690565b936040519363793d064960e11b8552602085600481895afa94851561148d575f95611db0575b503060601b6bffffffffffffffffffffffff191618946020604051809263b1c5f42760e01b82528180611c538b89898c60048601612f7a565b03915afa90811561148d575f91611d91575b50611c78875f52600e60205260405f2090565b55600d54611c8e906001600160a01b0316611be8565b90813b15610412575f8094611cba87604051998a97889687956308f2a0bb60e41b875260048701612fa3565b03925af190811561148d57611cde92611cd992611d77575b5042612ffe565b6133d0565b65ffffffffffff811615611d6857611d6281611d437f9a2e42fd6722813d69113e7d0079d3d940171428df7373df9c7f7617cfda2892936001611d29875f52600460205260405f2090565b019065ffffffffffff1665ffffffffffff19825416179055565b6040805185815265ffffffffffff909216602083015290918291820190565b0390a190565b634844252360e11b5f5260045ffd5b80611d855f611d8b93610675565b80610416565b5f611cd2565b611daa915060203d602011611486576114788183610675565b5f611c65565b611dca91955060203d602011611486576114788183610675565b935f611c1a565b90604051918281549182825260208201905f5260205f20925f5b818110611e005750506106aa92500383610675565b84546001600160a01b0316835260019485019487945060209093019201611deb565b90604051918281549182825260208201905f5260205f20925f5b818110611e515750506106aa92500383610675565b8454835260019485019487945060209093019201611e3c565b908154611e76816107a3565b92611e846040519485610675565b81845260208401905f5260205f205f915b838310611ea25750505050565b600160208192604051611ec081611eb98189611b3b565b0382610675565b815201920192019190611e95565b805f52600b60205260405f209160405190608082018281106001600160401b0382111761069657604052611f0184611dd1565b8252611f0f60018501611e22565b91602081019283526003611f2560028701611e6a565b9560408301968752015493606082019480865215611f4c5750519151935192519193929190565b636ad0607560e01b5f5260045260245ffd5b634e487b7160e01b5f52603260045260245ffd5b8051821015610bac5760209160051b010190565b93929091611f96828285886127a3565b92602095611fa86020601017866129ac565b50611fd1611fbe865f52600460205260405f2090565b805460ff60f01b1916600160f01b179055565b600d54306001600160a01b0390911603612073575b84611ff39596975061308d565b600d54309061200a906001600160a01b0316611be8565b141580612052575b612049575b6040518181527f712ae1383f79ac853f8d882153778e0260ef8f03b504e2866e0593e04d2b291f908060208101611d62565b5f600555612017565b5061206e6113276005546001600160801b0381169060801c1490565b612012565b925f95929491955b84518110156120cf57600190306120a5611be8612098848a611f72565b516001600160a01b031690565b146120b1575b0161207b565b6120ca6120be8289611f72565b518a81519101206129ea565b6120ab565b50919550859490939192611fe6565b939291906120ee838383886127a3565b946120f886612a26565b6008811015610c2e57158061221d575b15612206576121189495506127a3565b612123603b826129ac565b5061214e612139825f52600460205260405f2090565b80546001600160f81b0316600160f81b179055565b6040518181527f789cf55be980739dad1d0699b93b58e806b51c9d96619bfa8fe0a28abaa7b30c90602090a161218c815f52600e60205260405f2090565b5480612197575b5090565b600d546121ac906001600160a01b0316611be8565b803b156104125760405163c4d252f560e01b815260048101929092525f908290602490829084905af1801561148d576121f2575b505f818152600e602052604081205590565b80611d855f61220093610675565b5f6121e0565b85638fe5d8a960e01b5f526004523360245260445ffd5b50855f52600460205260018060a01b0360405f2054163314612108565b6040513d5f823e3d90fd5b60405190612254602083610675565b5f8252565b60405190612268604083610675565b601d82527f6d6f64653d626c6f636b6e756d6265722666726f6d3d64656661756c740000006020830152565b604051634bf5d7e960e01b81525f816004817f00000000000000000000000000000000000000000000000000000000000000006001600160a01b03165afa5f91816122e8575b506105415750610541612259565b9091503d805f833e6122fa8183610675565b810190602081830312610412578051906001600160401b038211610412570181601f8201121561041257805190612330826106bb565b9261233e6040519485610675565b8284526020838301011161041257815f9260208093018386015e83010152905f6122da565b93909291969561132761241c916124168a61237f3687896106d6565b6001600160a01b0382165f90815260026020526040902080546001810190915590602081519101208b5160208d0120906040519260208401947f3e83946653575f9a39005e1545185629e92736b7528ab20ca3816f315424a81186528d604086015260ff8d16606086015260018060a01b0316608085015260a084015260c083015260e082015260e0815261131961010082610675565b8a61324a565b612437576105419596916124319136916106d6565b92612bac565b6394ab6c0760e01b5f526001600160a01b03871660045260245ffd5b634e487b7160e01b5f52601160045260245ffd5b909392936124758533612dde565b156126925784519261248f602087019485208284866127a3565b938351835190818114801590612687575b801561267f575b61266257505065ffffffffffff6124d86124c9875f52600460205260405f2090565b5460a01c65ffffffffffff1690565b1661264557867f7d84a6263ae0d98d3329bd7b46bb4e8d6f98cd35a7adb45c274c8b7fd5ebd5e08587612604610541999a9b6125426125156126a5565b65ffffffffffff61253b61253065ffffffffffff6008541690565b65ffffffffffff1690565b9116612ffe565b61256061255763ffffffff60085460301c1690565b63ffffffff1690565b906125df612576865f52600460205260405f2090565b80546001600160a01b031916331781556125b6612592846133d0565b825465ffffffffffff60a01b191660a09190911b65ffffffffffff60a01b16178255565b6125bf84614061565b815463ffffffff60d01b191660d09190911b63ffffffff60d01b16179055565b896125f46125ed8851613e58565b9383612ffe565b928c60405198899833908a613ea1565b0390a1612610876134bb565b5190209161261c61069b565b938452602084015260408301526060820152612640835f52600b60205260405f2090565b613799565b6113608561265281612a26565b6331b75e4d60e01b5f5290612913565b8351630447b05d60e41b5f5260049190915260245260445260645ffd5b5080156124a7565b5083518114156124a0565b63d9b3955760e01b5f523360045260245ffd5b6040516324776b7d60e21b81526020816004817f00000000000000000000000000000000000000000000000000000000000000006001600160a01b03165afa5f91816126fb575b506105415750610541436133d0565b9091506020813d602011612730575b8161271760209383610675565b81010312610412575161272981610fba565b905f6126ec565b3d915061270a565b600d54306001600160a01b03909116036107945763bc197c8160e01b90565b805f52600460205265ffffffffffff60405f205460a01c16905f52600460205263ffffffff60405f205460d01c160165ffffffffffff811161279e5765ffffffffffff1690565b612453565b92906127bd6127cb92604051948593602085019788610a56565b03601f198101835282610675565b51902090565b90816020910312610412575190565b604051632394e7a360e21b815260048101829052906020826024817f00000000000000000000000000000000000000000000000000000000000000006001600160a01b03165afa90811561148d57610541925f92612849575b5061284390612ce7565b90612ee9565b6128439192506128679060203d602011611486576114788183610675565b9190612839565b600d54306001600160a01b039091160361079457565b600d54336001600160a01b03909116036128ed57600d54306001600160a01b03909116036128ae57565b6128b7366106bb565b6128c46040519182610675565b3681526020810190365f83375f602036830101525190205b806128e5612f55565b036128dc5750565b6347096e4760e01b5f523360045260245ffd5b6008811015610c2e5760ff600191161b90565b600452606491906008811015610c2e576024525f604452565b61293581612a26565b90601061294183612900565b161561294b575090565b6331b75e4d60e01b5f526004526129629150610c33565b601060445260645ffd5b61297581612a26565b90600261298183612900565b161561298b575090565b6331b75e4d60e01b5f526004526129a29150610c33565b600260445260645ffd5b906129b682612a26565b91816129c184612900565b16156129cc57505090565b6331b75e4d60e01b5f526004526129e282610c33565b60445260645ffd5b6129f590600561300b565b156129fc57565b634e487b715f5260416020526024601cfd5b90816020910312610412575180151581036104125790565b612a2f8161311a565b90612a3982610c24565b6005820361219357612a5491505f52600e60205260405f2090565b54600d54612a6a906001600160a01b0316611be8565b604051632c258a9f60e11b815260048101839052602081602481855afa90811561148d575f91612b10575b5015612aa2575050600590565b604051632ab0f52960e01b81526004810192909252602090829060249082905afa90811561148d575f91612ae1575b5015612adc57600790565b600290565b612b03915060203d602011612b09575b612afb8183610675565b810190612a0e565b5f612ad1565b503d612af1565b612b29915060203d602011612b0957612afb8183610675565b5f612a95565b91610541939160405193612b44602086610675565b5f8552612bac565b93909260ff612b789361054197958752166020860152604085015260a0606085015260a084019061050c565b91608081840391015261050c565b909260ff608093610541969584521660208301526040820152816060820152019061050c565b92919092612bb98161296c565b50805f52600460205265ffffffffffff612be060405f2065ffffffffffff905460a01c1690565b1693604051630748d63560e31b815260018060a01b03821695866004830152602482015260208160448160018060a01b037f0000000000000000000000000000000000000000000000000000000000000000165afa90811561148d57612c509285915f93612cc6575b50846132b8565b948051155f14612c935750612c8d7fb8e138887d0aa13bab447e82de9d5c1777041ecd21ca36ba824ff1e6c07ddda4938660405194859485612b86565b0390a290565b612c8d907fe2babfbac5889a709b63bb7f598b324e08bc5a4fb9ec647fb3cbc9ec07eb8712948760405195869586612b4c565b612ce091935060203d602011611486576114788183610675565b915f612c49565b65ffffffffffff9080612cfa600c613395565b9491501611155f14612d1457505b6001600160d01b031690565b612d1e91506133d0565b600c54905f829160058411612d8a575b612d3a9350600c613d55565b80612d4657505f612d08565b612d7e612d55612d8592612e46565b600c5f527fdf6966c971051c3d54ec59162606531493a51404a002842f56009d7e5cf4a8c70190565b5460301c90565b612d08565b9192612d9581613bf7565b810390811161279e57612d3a93600c5f5265ffffffffffff8260205f2001541665ffffffffffff8516105f14612dcc575091612d2e565b929150612dd890612ff0565b90612d2e565b90805160348110612e3e5760131981830101516001600160b01b03191669dc8f8d908f908c9a8dc360b01b01612e3e57612e1d9160291982019061342b565b9015918215612e2b57505090565b6001600160a01b03918216911614919050565b505050600190565b5f1981019190821161279e57565b9190820391821161279e57565b600c5480612e6e57505f90565b805f1981011161279e57600c5f527fdf6966c971051c3d54ec59162606531493a51404a002842f56009d7e5cf4a8c6015460301c90565b15612ead5790565b805115612ebc57602081519101fd5b63d6bda27560e01b5f5260045ffd5b8115612ed5570490565b634e487b7160e01b5f52601260045260245ffd5b5f19828209908281029182808210910303908115612f4a578160641115612f43577f5c28f5c28f5c28f5c28f5c28f5c28f5c28f5c28f5c28f5c28f5c28f5c28f5c29936064910990828211900360fe1b910360021c170290565b601161307d565b505060649004919050565b612f5f60056138b9565b9015612f685790565b634e487b715f5260316020526024601cfd5b949392610a82608093610a74612f989460a08a5260a08a019061098f565b935f60608201520152565b9192612fd260a094612fc4612fe0949998979960c0875260c087019061098f565b9085820360208701526109cb565b9083820360408501526109fe565b945f606083015260808201520152565b906001820180921161279e57565b9190820180921161279e57565b908154908160801c6001600160801b036001820193166001600160801b03841614613075576001600160801b03165f90815260018401602052604090205581546001600160801b031660809190911b6fffffffffffffffffffffffffffffffff1916179055600190565b505050505f90565b634e487b715f526020526024601cfd5b600d5490949192916001600160a01b03909116906bffffffffffffffffffffffff193060601b16823b15610412576130df5f956040519788968795869563e38335e560e01b8752189260048601612f7a565b039134905af1801561148d57613101575b505f908152600e6020526040812055565b8061310d5f8093610675565b800312610412575f6130f0565b61312c815f52600460205260405f2090565b5460f881901c9060f01c60ff166132135761320d576131596125306124c9835f52600460205260405f2090565b80156131f95761316a6125306126a5565b809110156131f35761317b82612757565b106131865750600190565b61319261132782613a63565b80156131d0575b156131a45750600390565b6131c2905f52600460205265ffffffffffff600160405f2001541690565b6131cb57600490565b600590565b506131ee611327825f52600960205260405f20600181015490541090565b613199565b50505f90565b636ad0607560e01b5f52600482905260245ffd5b50600290565b5050600790565b604290613225613aa7565b906040519161190160f01b8352600283015260228201522090565b60041115610c2e57565b9190823b613272579061325c91613bbd565b5061326681613240565b159182612e2b57505090565b916020926064835f94519060405193630b135d3f60e11b855260048501526040602485015286820190604485015e01915afa630b135d3f60e11b5f5114601f3d11161690565b6132cd909291925f52600960205260405f2090565b91600383016132f66132ef83839060018060a01b03165f5260205260405f2090565b5460ff1690565b6133795761331a60ff9392613327929060018060a01b03165f5260205260405f2090565b805460ff19166001179055565b168061333e5750613339828254612ffe565b905590565b600181036133555750600101613339828254612ffe565b60020361336a57600201613339828254612ffe565b6303599be160e11b5f5260045ffd5b6371c6af4960e01b5f526001600160a01b03821660045260245ffd5b805490816133a75750505f905f905f90565b815f1981011161279e575f525f199060205f2001015460019165ffffffffffff82169160301c90565b65ffffffffffff81116133e85765ffffffffffff1690565b6306dfcc6560e41b5f52603060045260245260445ffd5b908160011b918083046002149015171561279e57565b908160041b918083046010149015171561279e57565b91908251821180156134b2575b61348b5761344581612ff0565b821180613494575b6134589015156133ff565b6028018060281161279e5761346d8284612e54565b0361348b5761347b92613dae565b90916001600160a01b0390911690565b5050505f905f90565b50602081840101516001600160f01b03191661060f60f31b1461344d565b50818111613438565b600a54600160401b8110156106965760018101600a55600a54811015610bac57600a5f527fc65a7bb8d6351c1cf70c95a316cc6a92839c986682d98bc35f958f4883f9d2a80155565b5f5b82811061351257505050565b5f82820155600101613506565b9181811061352c57505050565b6106aa925f528060205f2001910390613504565b8151916001600160401b03831161069657600160401b83116106965760209061356e8484548186558561351f565b01905f5260205f205f5b8381106135855750505050565b600190602084519401938184015501613578565b91601f82116135a757505050565b8082116135b357505050565b6106aa925f5260205f20916020601f830160051c92106135de575b601f82910160051c039101613504565b5f91506135ce565b91909182516001600160401b0381116106965761360d816136078454611b03565b84613599565b6020601f821160011461364c57819061363d9394955f92613641575b50508160011b915f199060031b1c19161790565b9055565b015190505f80613629565b601f1982169061365f845f5260205f2090565b915f5b81811061369957509583600195969710613681575b505050811b019055565b01515f1960f88460031b161c191690555f8080613677565b9192602060018192868b015181550194019201613662565b815191600160401b831161069657815483835580841061370b575b5060206136de9101915f5260205f2090565b5f915b8383106136ee5750505050565b60016020826136ff839451866135e6565b019201920191906136e1565b825f52838060205f20019103905f5b8281106137285750506136cc565b8060019183016137388154611b03565b9081613747575b50500161371a565b601f8211841461375d575f9055505b5f8061373f565b6137846137949285613772845f5260205f2090565b601f90920160051c5f19019101613504565b5f81815260208120918190559055565b613756565b9080518051906001600160401b03821161069657600160401b8211610696576020906137ca8386548188558761351f565b01835f5260205f205f5b83811061380d57505050506060816137f56020600394015160018601613540565b6138066040820151600286016136b1565b0151910155565b82516001600160a01b0316818301556020909201916001016137d4565b60ff81146138705760ff811690601f8211613861576040519161384e604084610675565b6020808452838101919036833783525290565b632cd44ac360e21b5f5260045ffd5b5060405161054181611eb9815f611b3b565b60ff81146138a65760ff811690601f8211613861576040519161384e604084610675565b5060405161054181611eb9816001611b3b565b908154906001600160801b0382169160801c821461392e576001926001600160801b036001808301945f61391a82613902818a906001600160801b03165f5260205260405f2090565b5498906001600160801b03165f5260205260405f2090565b5501166001600160801b0319825416179055565b5f9250829150565b805490600160401b8210156106965760018201808255821015610bac575f9081526020908190208351939091015160301b65ffffffffffff191665ffffffffffff90931692909217910155565b600c549192918015613a3a57612d5561399b91612e46565b9081546139b76139b08265ffffffffffff1690565b9160301c90565b9265ffffffffffff808416921691808311613a2b578692036139f5576139f192509065ffffffffffff82549181199060301b169116179055565b9190565b50506139f190613a14613a066106ac565b65ffffffffffff9092168252565b6001600160d01b03851660208201525b600c613936565b632520601d60e01b5f5260045ffd5b50613a5e90613a4a613a066106ac565b6001600160d01b0384166020820152613a24565b5f9190565b805f52600960205260405f20905f526004602052613a8f65ffffffffffff60405f205460a01c166127e0565b60026001830154920154820180921161279e57111590565b307f00000000000000000000000000000000000000000000000000000000000000006001600160a01b03161480613b94575b15613b02577f000000000000000000000000000000000000000000000000000000000000000090565b60405160208101907f8b73c3c69bb8fe3d512ecc4cf759cc79239f7b179b0ffacaa9a75d522b39400f82527f000000000000000000000000000000000000000000000000000000000000000060408201527f000000000000000000000000000000000000000000000000000000000000000060608201524660808201523060a082015260a081526127cb60c082610675565b507f00000000000000000000000000000000000000000000000000000000000000004614613ad9565b8151919060418303613bed57613be69250602082015190606060408401519301515f1a90613f6d565b9192909190565b50505f9160029190565b600181111561054157806001600160801b821015613d18575b613cbe613cb4613caa613ca0613c96613c8c613c7b613cc59760048a600160401b613cca9c1015613d0b575b640100000000811015613cfe575b62010000811015613cf1575b610100811015613ce4575b6010811015613cd7575b1015613ccf575b60030260011c90565b613c85818b612ecb565b0160011c90565b613c85818a612ecb565b613c858189612ecb565b613c858188612ecb565b613c858187612ecb565b613c858186612ecb565b8093612ecb565b821190565b900390565b60011b613c72565b60041c9160021b91613c6b565b60081c9160041b91613c61565b60101c9160081b91613c56565b60201c9160101b91613c4a565b60401c9160201b91613c3c565b5050613cca613cc5613cbe613cb4613caa613ca0613c96613c8c613c7b613d3f8a60801c90565b9850600160401b9750613c109650505050505050565b905b838310613d645750505090565b90919280841860011c8185160190835f5265ffffffffffff8260205f2001541665ffffffffffff8416105f14613d9e5750925b9190613d57565b9350613da990612ff0565b613d97565b929092613dba84612ff0565b831180613e3a575b613dd4613ddb919492939415156133ff565b5f95612ffe565b915b818310613ded5750505060019190565b9092919360ff613e0e613e096020888601015160ff60f81b1690565b613fef565b1690600f8211613e2f5790613e24600192613415565b019401919290613ddd565b505f94508493505050565b50602084820101516001600160f01b03191661060f60f31b14613dc2565b90613e62826107a3565b613e6f6040519182610675565b8281528092613e80601f19916107a3565b01905f5b828110613e9057505050565b806060602080938501015201613e84565b959998969794939192613ee293613ed492885260018060a01b03166020880152610120604088015261012087019061098f565b9085820360608701526109cb565b968388036080850152815180895260208901906020808260051b8c01019401915f905b828210613f41575050505061054196975090613f289184820360a08601526109fe565b9360c083015260e082015261010081840391015261050c565b90919294602080613f5f6001938f601f19908203018652895161050c565b970192019201909291613f05565b91907f7fffffffffffffffffffffffffffffff5d576e7357a4501ddfe92f46681b20a08411613fe4579160209360809260ff5f9560405194855216868401526040830152606082015282805260015afa1561148d575f516001600160a01b03811615613fda57905f905f90565b505f906001905f90565b5050505f9160039190565b60f81c602f811180614057575b1561400b57602f190160ff1690565b606081118061404d575b15614024576056190160ff1690565b6040811180614043575b1561403d576036190160ff1690565b5060ff90565b506047811061402e565b5060678110614015565b50603a8110613ffc565b63ffffffff81116140755763ffffffff1690565b6306dfcc6560e41b5f52602060045260245260445ffdfea26469706673582212207f0753a4d747365eda502d3ccacb3ae700ed46028aa73f13965fc8f90d6cc81964736f6c63430008210033","linkReferences":{}},"methodIdentifiers":{"BALLOT_TYPEHASH()":"deaaa7cc","CLOCK_MODE()":"4bf5d7e9","COUNTING_MODE()":"dd4e2ba5","EXTENDED_BALLOT_TYPEHASH()":"2fe3e261","cancel(address[],uint256[],bytes[],bytes32)":"452115d6","cancel(uint256)":"40e58ee5","castVote(uint256,uint8)":"56781388","castVoteBySig(uint256,uint8,address,bytes)":"8ff262e3","castVoteWithReason(uint256,uint8,string)":"7b3c71d3","castVoteWithReasonAndParams(uint256,uint8,string,bytes)":"5f398a14","castVoteWithReasonAndParamsBySig(uint256,uint8,address,string,bytes,bytes)":"5b8d0e0d","clock()":"91ddadf4","eip712Domain()":"84b0196e","execute(address[],uint256[],bytes[],bytes32)":"2656227d","execute(uint256)":"fe0d94c1","getProposalId(address[],uint256[],bytes[],bytes32)":"a8f8a668","getVotes(address,uint256)":"eb9019d4","getVotesWithParams(address,uint256,bytes)":"9a802a6d","hasVoted(uint256,address)":"43859632","hashProposal(address[],uint256[],bytes[],bytes32)":"c59057e4","name()":"06fdde03","nonces(address)":"7ecebe00","onERC1155BatchReceived(address,address,uint256[],uint256[],bytes)":"bc197c81","onERC1155Received(address,address,uint256,uint256,bytes)":"f23a6e61","onERC721Received(address,address,uint256,bytes)":"150b7a02","proposalCount()":"da35c664","proposalDeadline(uint256)":"c01f9e37","proposalDetails(uint256)":"16e9eaec","proposalDetailsAt(uint256)":"2e82db94","proposalEta(uint256)":"ab58fb8e","proposalNeedsQueuing(uint256)":"a9a95294","proposalProposer(uint256)":"143489d0","proposalSnapshot(uint256)":"2d63f693","proposalThreshold()":"b58131b0","proposalVotes(uint256)":"544ffc9c","propose(address[],uint256[],bytes[],string)":"7d5e81e2","queue(address[],uint256[],bytes[],bytes32)":"160cbed7","queue(uint256)":"ddf0b009","quorum(uint256)":"f8ce560a","quorumDenominator()":"97c3d334","quorumNumerator()":"a7713a70","quorumNumerator(uint256)":"60c4247f","relay(address,uint256,bytes)":"c28bc2fa","setProposalThreshold(uint256)":"ece40cc1","setVotingDelay(uint48)":"79051887","setVotingPeriod(uint32)":"e540d01d","state(uint256)":"3e4f49e6","supportsInterface(bytes4)":"01ffc9a7","timelock()":"d33219b4","token()":"fc0c546a","updateQuorumNumerator(uint256)":"06f3f9e6","updateTimelock(address)":"a890c910","version()":"54fd4d50","votingDelay()":"3932abb1","votingPeriod()":"02a251a3"},"id":83}