{"abi":[{"type":"constructor","inputs":[{"name":"initialOwner","type":"address","internalType":"address"},{"name":"wrappedToken","type":"address","internalType":"contract IERC20"}],"stateMutability":"nonpayable"},{"type":"function","name":"CLOCK_MODE","inputs":[],"outputs":[{"name":"","type":"string","internalType":"string"}],"stateMutability":"view"},{"type":"function","name":"DOMAIN_SEPARATOR","inputs":[],"outputs":[{"name":"","type":"bytes32","internalType":"bytes32"}],"stateMutability":"view"},{"type":"function","name":"allowance","inputs":[{"name":"owner","type":"address","internalType":"address"},{"name":"spender","type":"address","internalType":"address"}],"outputs":[{"name":"","type":"uint256","internalType":"uint256"}],"stateMutability":"view"},{"type":"function","name":"approve","inputs":[{"name":"spender","type":"address","internalType":"address"},{"name":"value","type":"uint256","internalType":"uint256"}],"outputs":[{"name":"","type":"bool","internalType":"bool"}],"stateMutability":"nonpayable"},{"type":"function","name":"balanceOf","inputs":[{"name":"account","type":"address","internalType":"address"}],"outputs":[{"name":"","type":"uint256","internalType":"uint256"}],"stateMutability":"view"},{"type":"function","name":"burn","inputs":[{"name":"value","type":"uint256","internalType":"uint256"}],"outputs":[],"stateMutability":"nonpayable"},{"type":"function","name":"burnFrom","inputs":[{"name":"account","type":"address","internalType":"address"},{"name":"value","type":"uint256","internalType":"uint256"}],"outputs":[],"stateMutability":"nonpayable"},{"type":"function","name":"checkpoints","inputs":[{"name":"account","type":"address","internalType":"address"},{"name":"pos","type":"uint32","internalType":"uint32"}],"outputs":[{"name":"","type":"tuple","internalType":"struct Checkpoints.Checkpoint208","components":[{"name":"_key","type":"uint48","internalType":"uint48"},{"name":"_value","type":"uint208","internalType":"uint208"}]}],"stateMutability":"view"},{"type":"function","name":"clock","inputs":[],"outputs":[{"name":"","type":"uint48","internalType":"uint48"}],"stateMutability":"view"},{"type":"function","name":"decimals","inputs":[],"outputs":[{"name":"","type":"uint8","internalType":"uint8"}],"stateMutability":"view"},{"type":"function","name":"delegate","inputs":[{"name":"delegatee","type":"address","internalType":"address"}],"outputs":[],"stateMutability":"nonpayable"},{"type":"function","name":"delegateBySig","inputs":[{"name":"delegatee","type":"address","internalType":"address"},{"name":"nonce","type":"uint256","internalType":"uint256"},{"name":"expiry","type":"uint256","internalType":"uint256"},{"name":"v","type":"uint8","internalType":"uint8"},{"name":"r","type":"bytes32","internalType":"bytes32"},{"name":"s","type":"bytes32","internalType":"bytes32"}],"outputs":[],"stateMutability":"nonpayable"},{"type":"function","name":"delegates","inputs":[{"name":"account","type":"address","internalType":"address"}],"outputs":[{"name":"","type":"address","internalType":"address"}],"stateMutability":"view"},{"type":"function","name":"depositFor","inputs":[{"name":"account","type":"address","internalType":"address"},{"name":"value","type":"uint256","internalType":"uint256"}],"outputs":[{"name":"","type":"bool","internalType":"bool"}],"stateMutability":"nonpayable"},{"type":"function","name":"eip712Domain","inputs":[],"outputs":[{"name":"fields","type":"bytes1","internalType":"bytes1"},{"name":"name","type":"string","internalType":"string"},{"name":"version","type":"string","internalType":"string"},{"name":"chainId","type":"uint256","internalType":"uint256"},{"name":"verifyingContract","type":"address","internalType":"address"},{"name":"salt","type":"bytes32","internalType":"bytes32"},{"name":"extensions","type":"uint256[]","internalType":"uint256[]"}],"stateMutability":"view"},{"type":"function","name":"getPastTotalSupply","inputs":[{"name":"timepoint","type":"uint256","internalType":"uint256"}],"outputs":[{"name":"","type":"uint256","internalType":"uint256"}],"stateMutability":"view"},{"type":"function","name":"getPastVotes","inputs":[{"name":"account","type":"address","internalType":"address"},{"name":"timepoint","type":"uint256","internalType":"uint256"}],"outputs":[{"name":"","type":"uint256","internalType":"uint256"}],"stateMutability":"view"},{"type":"function","name":"getVotes","inputs":[{"name":"account","type":"address","internalType":"address"}],"outputs":[{"name":"","type":"uint256","internalType":"uint256"}],"stateMutability":"view"},{"type":"function","name":"mint","inputs":[{"name":"to","type":"address","internalType":"address"},{"name":"amount","type":"uint256","internalType":"uint256"}],"outputs":[],"stateMutability":"nonpayable"},{"type":"function","name":"name","inputs":[],"outputs":[{"name":"","type":"string","internalType":"string"}],"stateMutability":"view"},{"type":"function","name":"nonces","inputs":[{"name":"owner","type":"address","internalType":"address"}],"outputs":[{"name":"","type":"uint256","internalType":"uint256"}],"stateMutability":"view"},{"type":"function","name":"numCheckpoints","inputs":[{"name":"account","type":"address","internalType":"address"}],"outputs":[{"name":"","type":"uint32","internalType":"uint32"}],"stateMutability":"view"},{"type":"function","name":"owner","inputs":[],"outputs":[{"name":"","type":"address","internalType":"address"}],"stateMutability":"view"},{"type":"function","name":"permit","inputs":[{"name":"owner","type":"address","internalType":"address"},{"name":"spender","type":"address","internalType":"address"},{"name":"value","type":"uint256","internalType":"uint256"},{"name":"deadline","type":"uint256","internalType":"uint256"},{"name":"v","type":"uint8","internalType":"uint8"},{"name":"r","type":"bytes32","internalType":"bytes32"},{"name":"s","type":"bytes32","internalType":"bytes32"}],"outputs":[],"stateMutability":"nonpayable"},{"type":"function","name":"renounceOwnership","inputs":[],"outputs":[],"stateMutability":"nonpayable"},{"type":"function","name":"symbol","inputs":[],"outputs":[{"name":"","type":"string","internalType":"string"}],"stateMutability":"view"},{"type":"function","name":"totalSupply","inputs":[],"outputs":[{"name":"","type":"uint256","internalType":"uint256"}],"stateMutability":"view"},{"type":"function","name":"transfer","inputs":[{"name":"to","type":"address","internalType":"address"},{"name":"value","type":"uint256","internalType":"uint256"}],"outputs":[{"name":"","type":"bool","internalType":"bool"}],"stateMutability":"nonpayable"},{"type":"function","name":"transferFrom","inputs":[{"name":"from","type":"address","internalType":"address"},{"name":"to","type":"address","internalType":"address"},{"name":"value","type":"uint256","internalType":"uint256"}],"outputs":[{"name":"","type":"bool","internalType":"bool"}],"stateMutability":"nonpayable"},{"type":"function","name":"transferOwnership","inputs":[{"name":"newOwner","type":"address","internalType":"address"}],"outputs":[],"stateMutability":"nonpayable"},{"type":"function","name":"underlying","inputs":[],"outputs":[{"name":"","type":"address","internalType":"contract IERC20"}],"stateMutability":"view"},{"type":"function","name":"withdrawTo","inputs":[{"name":"account","type":"address","internalType":"address"},{"name":"value","type":"uint256","internalType":"uint256"}],"outputs":[{"name":"","type":"bool","internalType":"bool"}],"stateMutability":"nonpayable"},{"type":"event","name":"Approval","inputs":[{"name":"owner","type":"address","indexed":true,"internalType":"address"},{"name":"spender","type":"address","indexed":true,"internalType":"address"},{"name":"value","type":"uint256","indexed":false,"internalType":"uint256"}],"anonymous":false},{"type":"event","name":"DelegateChanged","inputs":[{"name":"delegator","type":"address","indexed":true,"internalType":"address"},{"name":"fromDelegate","type":"address","indexed":true,"internalType":"address"},{"name":"toDelegate","type":"address","indexed":true,"internalType":"address"}],"anonymous":false},{"type":"event","name":"DelegateVotesChanged","inputs":[{"name":"delegate","type":"address","indexed":true,"internalType":"address"},{"name":"previousVotes","type":"uint256","indexed":false,"internalType":"uint256"},{"name":"newVotes","type":"uint256","indexed":false,"internalType":"uint256"}],"anonymous":false},{"type":"event","name":"EIP712DomainChanged","inputs":[],"anonymous":false},{"type":"event","name":"OwnershipTransferred","inputs":[{"name":"previousOwner","type":"address","indexed":true,"internalType":"address"},{"name":"newOwner","type":"address","indexed":true,"internalType":"address"}],"anonymous":false},{"type":"event","name":"Transfer","inputs":[{"name":"from","type":"address","indexed":true,"internalType":"address"},{"name":"to","type":"address","indexed":true,"internalType":"address"},{"name":"value","type":"uint256","indexed":false,"internalType":"uint256"}],"anonymous":false},{"type":"error","name":"CheckpointUnorderedInsertion","inputs":[]},{"type":"error","name":"ECDSAInvalidSignature","inputs":[]},{"type":"error","name":"ECDSAInvalidSignatureLength","inputs":[{"name":"length","type":"uint256","internalType":"uint256"}]},{"type":"error","name":"ECDSAInvalidSignatureS","inputs":[{"name":"s","type":"bytes32","internalType":"bytes32"}]},{"type":"error","name":"ERC20ExceededSafeSupply","inputs":[{"name":"increasedSupply","type":"uint256","internalType":"uint256"},{"name":"cap","type":"uint256","internalType":"uint256"}]},{"type":"error","name":"ERC20InsufficientAllowance","inputs":[{"name":"spender","type":"address","internalType":"address"},{"name":"allowance","type":"uint256","internalType":"uint256"},{"name":"needed","type":"uint256","internalType":"uint256"}]},{"type":"error","name":"ERC20InsufficientBalance","inputs":[{"name":"sender","type":"address","internalType":"address"},{"name":"balance","type":"uint256","internalType":"uint256"},{"name":"needed","type":"uint256","internalType":"uint256"}]},{"type":"error","name":"ERC20InvalidApprover","inputs":[{"name":"approver","type":"address","internalType":"address"}]},{"type":"error","name":"ERC20InvalidReceiver","inputs":[{"name":"receiver","type":"address","internalType":"address"}]},{"type":"error","name":"ERC20InvalidSender","inputs":[{"name":"sender","type":"address","internalType":"address"}]},{"type":"error","name":"ERC20InvalidSpender","inputs":[{"name":"spender","type":"address","internalType":"address"}]},{"type":"error","name":"ERC20InvalidUnderlying","inputs":[{"name":"token","type":"address","internalType":"address"}]},{"type":"error","name":"ERC2612ExpiredSignature","inputs":[{"name":"deadline","type":"uint256","internalType":"uint256"}]},{"type":"error","name":"ERC2612InvalidSigner","inputs":[{"name":"signer","type":"address","internalType":"address"},{"name":"owner","type":"address","internalType":"address"}]},{"type":"error","name":"ERC5805FutureLookup","inputs":[{"name":"timepoint","type":"uint256","internalType":"uint256"},{"name":"clock","type":"uint48","internalType":"uint48"}]},{"type":"error","name":"ERC6372InconsistentClock","inputs":[]},{"type":"error","name":"InvalidAccountNonce","inputs":[{"name":"account","type":"address","internalType":"address"},{"name":"currentNonce","type":"uint256","internalType":"uint256"}]},{"type":"error","name":"InvalidShortString","inputs":[]},{"type":"error","name":"OwnableInvalidOwner","inputs":[{"name":"owner","type":"address","internalType":"address"}]},{"type":"error","name":"OwnableUnauthorizedAccount","inputs":[{"name":"account","type":"address","internalType":"address"}]},{"type":"error","name":"SafeCastOverflowedUintDowncast","inputs":[{"name":"bits","type":"uint8","internalType":"uint8"},{"name":"value","type":"uint256","internalType":"uint256"}]},{"type":"error","name":"SafeERC20FailedOperation","inputs":[{"name":"token","type":"address","internalType":"address"}]},{"type":"error","name":"StringTooLong","inputs":[{"name":"str","type":"string","internalType":"string"}]},{"type":"error","name":"VotesExpiredSignature","inputs":[{"name":"expiry","type":"uint256","internalType":"uint256"}]}],"bytecode":{"object":"0x6101808060405234610529576040816129a98038038091610020828561052d565b8339810103126105295780516001600160a01b03811691908290036105295760200151906001600160a01b038216908183036105295760405161006460408261052d565b600f8152602081016e23b7bb32b93730b731b2aa37b5b2b760891b81526040519161009060408461052d565b600f83526e23b7bb32b93730b731b2aa37b5b2b760891b6020840152604051936100bb60408661052d565b600385526247544b60e81b6020860152604051946100da60408761052d565b60018652603160f81b60208701908152855190956001600160401b0382116104245760035490600182811c9216801561051f575b60208310146104065781601f8493116104a9575b50602090601f8311600114610443575f92610438575b50508160011b915f199060031b1c1916176003555b8051906001600160401b0382116104245760045490600182811c9216801561041a575b60208310146104065781601f849311610390575b50602090601f831160011461032a575f9261031f575b50508160011b915f199060031b1c1916176004555b801561030c57600580546001600160a01b0319811683179091556001600160a01b03167f8be0079c531659141344cd1fd0a4f28419497f9722a3daafe3b4186f6b6457e05f80a36101ff81610550565b6101205261020c846106e3565b61014052519020918260e05251902080610100524660a0526040519060208201927f8b73c3c69bb8fe3d512ecc4cf759cc79239f7b179b0ffacaa9a75d522b39400f8452604083015260608201524660808201523060a082015260a0815261027560c08261052d565b5190206080523060c05230146102f95761016052604051612181908161082882396080518161164f015260a0518161170c015260c05181611619015260e0518161169e015261010051816116c4015261012051816109dc01526101405181610a050152610160518181816103e2015281816104ff01528181610838015261159c0152f35b63438d6fe360e01b5f523060045260245ffd5b631e4fbdf760e01b5f525f60045260245ffd5b015190505f8061019a565b60045f9081528281209350601f198516905b8181106103785750908460019594939210610360575b505050811b016004556101af565b01515f1960f88460031b161c191690555f8080610352565b9293602060018192878601518155019501930161033c565b828111156101845760045f52909150601f830160051c7f8a35acfbc15ff81a39ae7d344fd709f28e8600b4aa8c65c6b64bfe7fe36bd19b602085106103fe575b849392601f0160051c82900391015f5b8281106103ee575050610184565b5f818301558594506001016103e0565b5f91506103d0565b634e487b7160e01b5f52602260045260245ffd5b91607f1691610170565b634e487b7160e01b5f52604160045260245ffd5b015190505f80610138565b60035f9081528281209350601f198516905b8181106104915750908460019594939210610479575b505050811b0160035561014d565b01515f1960f88460031b161c191690555f808061046b565b92936020600181928786015181550195019301610455565b828111156101225760035f52909150601f830160051c7fc2575a0e9e593c00f959f8c92f12db2869c3395a3b0502d05e2516446f71f85b60208510610517575b849392601f0160051c82900391015f5b828110610507575050610122565b5f818301558594506001016104f9565b5f91506104e9565b91607f169161010e565b5f80fd5b601f909101601f19168101906001600160401b0382119082101761042457604052565b908151602081105f146105ca575090601f81511161058a57602081519101516020821061057b571790565b5f198260200360031b1b161790565b604460209160405192839163305a27a960e01b83528160048401528051918291826024860152018484015e5f828201840152601f01601f19168101030190fd5b6001600160401b03811161042457600654600181811c911680156106d9575b602082101461040657601f811161069a575b50602092601f821160011461063957928192935f9261062e575b50508160011b915f199060031b1c19161760065560ff90565b015190505f80610615565b601f1982169360065f52805f20915f5b868110610682575083600195961061066a575b505050811b0160065560ff90565b01515f1960f88460031b161c191690555f808061065c565b91926020600181928685015181550194019201610649565b818111156105fb5760065f5260205f20601f80840160051c809201920160051c03905f5b8281106106cc5750506105fb565b5f828201556001016106be565b90607f16906105e9565b908151602081105f1461070e575090601f81511161058a57602081519101516020821061057b571790565b6001600160401b03811161042457600754600181811c9116801561081d575b602082101461040657601f81116107de575b50602092601f821160011461077d57928192935f92610772575b50508160011b915f199060031b1c19161760075560ff90565b015190505f80610759565b601f1982169360075f52805f20915f5b8681106107c657508360019596106107ae575b505050811b0160075560ff90565b01515f1960f88460031b161c191690555f80806107a0565b9192602060018192868501518155019401920161078d565b8181111561073f5760075f5260205f20601f80840160051c809201920160051c03905f5b82811061081057505061073f565b5f82820155600101610802565b90607f169061072d56fe60806040526004361015610011575f80fd5b5f3560e01c806306fdde0314610214578063095ea7b31461020f57806318160ddd1461020a578063205c28781461020557806323b872dd146102005780632f4f21e2146101fb578063313ce567146101f65780633644e515146101f15780633a46b1a8146101ec57806340c10f19146101e757806342966c68146101e25780634bf5d7e9146101dd578063587cde1e146101d85780635c19a95c146101d35780636f307dc3146101ce5780636fcfff45146101c957806370a08231146101c4578063715018a6146101bf57806379cc6790146101ba5780637ecebe00146101b557806384b0196e146101b05780638da5cb5b146101ab5780638e539e8c146101a657806391ddadf4146101a157806395d89b411461019c5780639ab24eb014610197578063a9059cbb14610192578063c3cda5201461018d578063d505accf14610188578063dd62ed3e14610183578063f1127ed81461017e5763f2fde38b14610179575f80fd5b611034565b610f82565b610f2b565b610e03565b610cf0565b610cbf565b610c78565b610bd3565b610ba8565b610ae9565b610ac1565b6109c4565b61098c565b61095c565b610901565b6108c9565b610867565b610823565b610801565b6107c1565b610731565b610714565b6106e5565b610600565b6105de565b6105b9565b6104c8565b610490565b6103a9565b61038c565b61035b565b610251565b805180835260209291819084018484015e5f828201840152601f01601f1916010190565b90602061024e928181520190610219565b90565b3461032b575f36600319011261032b576040515f600354610271816110ba565b808452906001811690811561030757506001146102a9575b6102a583610299818503826111a8565b6040519182918261023d565b0390f35b60035f9081527fc2575a0e9e593c00f959f8c92f12db2869c3395a3b0502d05e2516446f71f85b939250905b8082106102ed57509091508101602001610299610289565b9192600181602092548385880101520191019092916102d5565b60ff191660208086019190915291151560051b840190910191506102999050610289565b5f80fd5b600435906001600160a01b038216820361032b57565b602435906001600160a01b038216820361032b57565b3461032b57604036600319011261032b5761038161037761032f565b60243590336118a2565b602060405160018152f35b3461032b575f36600319011261032b576020600254604051908152f35b3461032b57604036600319011261032b576103c261032f565b602435906001600160a01b031630811461047e576103e082336111f3565b7f0000000000000000000000000000000000000000000000000000000000000000916040519163a9059cbb60e01b5f5260045260245260205f60448180865af160015f511481161561045f575b604091909152156104445760405160018152602090f35b635274afe760e01b5f526001600160a01b031660045260245ffd5b6001811516610475573d15833b1515161661042d565b503d5f823e3d90fd5b63ec442f0560e01b5f5260045260245ffd5b3461032b57606036600319011261032b576103816104ac61032f565b6104b4610345565b604435916104c383338361132e565b6113fc565b3461032b57604036600319011261032b576104e161032f565b6024353033146105a6576001600160a01b03821630811461047e57507f0000000000000000000000000000000000000000000000000000000000000000916040516323b872dd60e01b5f5233600452306024528260445260205f60648180885af160015f5114811615610590575b6040919091525f606052156105745761056892506114e8565b60405160018152602090f35b635274afe760e01b5f526001600160a01b03831660045260245ffd5b6001811516610475573d15853b1515161661054f565b634b637e8f60e11b5f523060045260245ffd5b3461032b575f36600319011261032b5760206105d3611587565b60ff60405191168152f35b3461032b575f36600319011261032b5760206105f8611616565b604051908152f35b3461032b57604036600319011261032b5761061961032f565b6001600160a01b03165f908152600a6020526040902061063a602435611732565b8154905f82916005841161068d575b610654935084611ac2565b908161067257505060205f5b6040516001600160d01b039091168152f35b61067d60209261177f565b905f52815f20015460301c610660565b919261069881611964565b81039081116106e05761065493855f5265ffffffffffff8260205f2001541665ffffffffffff8516105f146106ce575091610649565b9291506106da9061178d565b90610649565b61176b565b3461032b57604036600319011261032b5761071261070161032f565b6024359061070d61179b565b6114e8565b005b3461032b57602036600319011261032b57610712600435336111f3565b3461032b575f36600319011261032b5761074a43611917565b65ffffffffffff8061075b43611917565b169116036107b2576102a56040516107746040826111a8565b601d81527f6d6f64653d626c6f636b6e756d6265722666726f6d3d64656661756c740000006020820152604051918291602083526020830190610219565b6301bfc1c560e61b5f5260045ffd5b3461032b57602036600319011261032b576001600160a01b036107e261032f565b165f526009602052602060018060a01b0360405f205416604051908152f35b3461032b57602036600319011261032b5761071261081d61032f565b336117c2565b3461032b575f36600319011261032b576040517f00000000000000000000000000000000000000000000000000000000000000006001600160a01b03168152602090f35b3461032b57602036600319011261032b576001600160a01b0361088861032f565b165f52600a60205260405f205463ffffffff81116108b25760405163ffffffff9091168152602090f35b6306dfcc6560e41b5f52602060045260245260445ffd5b3461032b57602036600319011261032b5760206105f86108e761032f565b6001600160a01b03165f9081526020819052604090205490565b3461032b575f36600319011261032b5761091961179b565b600580546001600160a01b031981169091555f906001600160a01b03167f8be0079c531659141344cd1fd0a4f28419497f9722a3daafe3b4186f6b6457e08280a3005b3461032b57604036600319011261032b5761071261097861032f565b6024359061098782338361132e565b6111f3565b3461032b57602036600319011261032b576001600160a01b036109ad61032f565b165f526008602052602060405f2054604051908152f35b3461032b575f36600319011261032b57610a68610a007f0000000000000000000000000000000000000000000000000000000000000000611c3d565b610a297f0000000000000000000000000000000000000000000000000000000000000000611c9d565b6020604051610a3882826111a8565b5f815281610a7681830194601f198301368737604051978897600f60f81b895260e0858a015260e0890190610219565b908782036040890152610219565b914660608701523060808701525f60a087015285830360c087015251918281520192915f5b828110610aaa57505050500390f35b835185528695509381019392810192600101610a9b565b3461032b575f36600319011261032b576005546040516001600160a01b039091168152602090f35b3461032b57602036600319011261032b57610b05600435611732565b600b54905f829160058411610b54575b610b219350600b611ac2565b80610b3257506040515f8152602090f35b610b4f610b4060209261177f565b600b5f52825f20015460301c90565b610660565b9192610b5f81611964565b81039081116106e057610b2193600b5f5265ffffffffffff8260205f2001541665ffffffffffff8516105f14610b96575091610b15565b929150610ba29061178d565b90610b15565b3461032b575f36600319011261032b576020610bc343611917565b65ffffffffffff60405191168152f35b3461032b575f36600319011261032b576040515f600454610bf3816110ba565b80845290600181169081156103075750600114610c1a576102a583610299818503826111a8565b60045f9081527f8a35acfbc15ff81a39ae7d344fd709f28e8600b4aa8c65c6b64bfe7fe36bd19b939250905b808210610c5e57509091508101602001610299610289565b919260018160209254838588010152019101909291610c46565b3461032b57602036600319011261032b576001600160a01b03610c9961032f565b165f52600a602052602060018060d01b03610cb660405f20611843565b16604051908152f35b3461032b57604036600319011261032b57610381610cdb61032f565b60243590336113fc565b60ff81160361032b57565b3461032b5760c036600319011261032b57610d0961032f565b60243590604435606435610d1c81610ce5565b6084359060a43592804211610df15791610da19391610d93610d989460405160208101917fe48329057bfd03d55e49b547132e39cffd9c1820ad7b9d4c5307691425d15adf835260018060a01b038a1660408301528a6060830152608082015260808152610d8b60a0826111a8565b51902061186d565b611cd4565b90929192611d7f565b6001600160a01b0381165f908152600860205260409020805460018101909155809303610dd25761071292506117c2565b90506301d4b62360e61b5f5260018060a01b031660045260245260445ffd5b632341d78760e11b5f5260045260245ffd5b3461032b5760e036600319011261032b57610e1c61032f565b610e24610345565b6044359060643592608435610e3881610ce5565b60a43560c43590864211610f18576001600160a01b0384165f908152600860205260409020805460018101909155610edd9390610ed8909860405160208101917f6e71edae12b1b97f4d1f60370fef10105fa2faae0126114a169c64845d6126c9835260018060a01b0389169b8c604084015260018060a01b038b1660608401528b608084015260a083015260c082015260c08152610d8b60e0826111a8565b611893565b936001600160a01b03851603610ef75761071293506118a2565b6325c0072360e11b5f526001600160a01b038085166004521660245260445ffd5b8663313c898160e11b5f5260045260245ffd5b3461032b57604036600319011261032b576020610f79610f4961032f565b610f51610345565b6001600160a01b039182165f9081526001855260408082209290931681526020919091522090565b54604051908152f35b3461032b57604036600319011261032b57610f9b61032f565b6024359063ffffffff8216820361032b576102a591610fea91610fbc6111db565b50610fc56111db565b506001600160a01b03165f908152600a60205260409020610fe46111db565b50611dfb565b5060405190610ff882611187565b5465ffffffffffff811680835260309190911c60209283019081526040805192835290516001600160d01b031692820192909252918291820190565b3461032b57602036600319011261032b5761104d61032f565b61105561179b565b6001600160a01b031680156110a757600580546001600160a01b0319811683179091556001600160a01b03167f8be0079c531659141344cd1fd0a4f28419497f9722a3daafe3b4186f6b6457e05f80a3005b631e4fbdf760e01b5f525f60045260245ffd5b90600182811c921680156110e8575b60208310146110d457565b634e487b7160e01b5f52602260045260245ffd5b91607f16916110c9565b5f9291815491611101836110ba565b8083529260018116908115611156575060011461111d57505050565b5f9081526020812093945091925b83831061113c575060209250010190565b60018160209294939454838587010152019101919061112b565b915050602093945060ff929192191683830152151560051b010190565b634e487b7160e01b5f52604160045260245ffd5b6040810190811067ffffffffffffffff8211176111a357604052565b611173565b90601f8019910116810190811067ffffffffffffffff8211176111a357604052565b604051906111d96040836111a8565b565b604051906111e882611187565b5f6020838281520152565b6001600160a01b03811690811561131b576001600160a01b0381165f908152602081905260409020548381106112f65790611245846111d9959493039160018060a01b03165f525f60205260405f2090565b5581600254036002555f817fddf252ad1be2c89b69c2b068fc378daa952ba7f163c4a11628f55a4df523b3ef60405180602081018782520390a380156112de575b61129761129283611e24565b611ef6565b50505f908152600960205260408120549080527fec8156718a8372b1db44bb411437d0870f3e3790d4a08526d024ce1b0b668f6b546001600160a01b039081169116611b1b565b6112ef6112ea83611e24565b611ec1565b5050611286565b63391434e360e21b5f526001600160a01b03909116600452602452604482905260645ffd5b634b637e8f60e11b5f525f60045260245ffd5b6001600160a01b039081165f81815260016020908152604080832094861683529390529190912091929091545f198110611369575b50505050565b8181106113db5782156113c8576001600160a01b038416156113b5576113ab925f526001602052039160405f209060018060a01b03165f5260205260405f2090565b555f808080611363565b634a1406b160e11b5f525f60045260245ffd5b63e602df0560e01b5f525f60045260245ffd5b83637dc7a0d960e11b5f5260018060a01b031660045260245260445260645ffd5b6001600160a01b03811693929190841561131b576001600160a01b03821680156114d5576001600160a01b0382165f90815260208190526040902054958487106114af57846111d99697036114608460018060a01b03165f525f60205260405f2090565b556001600160a01b0384165f9081526020819052604090208054860190556040518581527fddf252ad1be2c89b69c2b068fc378daa952ba7f163c4a11628f55a4df523b3ef90602090a3611fa4565b63391434e360e21b5f526001600160a01b0383166004526024879052604485905260645ffd5b63ec442f0560e01b5f525f60045260245ffd5b91906001600160a01b03831680156114d5576002548281018091116106e0576002556001600160a01b0384165f90815260208181526040808320805486019055518481527fddf252ad1be2c89b69c2b068fc378daa952ba7f163c4a11628f55a4df523b3ef9190a36002546001600160d01b03939084811161157057506111d9929350611f2b565b8490630e58ae9360e11b5f5260045260245260445ffd5b60405163313ce56760e01b81526020816004817f00000000000000000000000000000000000000000000000000000000000000006001600160a01b03165afa5f91816115d9575b5061024e5750601290565b9091506020813d60201161160e575b816115f5602093836111a8565b8101031261032b575161160781610ce5565b905f6115ce565b3d91506115e8565b307f00000000000000000000000000000000000000000000000000000000000000006001600160a01b03161480611709575b15611671577f000000000000000000000000000000000000000000000000000000000000000090565b60405160208101907f8b73c3c69bb8fe3d512ecc4cf759cc79239f7b179b0ffacaa9a75d522b39400f82527f000000000000000000000000000000000000000000000000000000000000000060408201527f000000000000000000000000000000000000000000000000000000000000000060608201524660808201523060a082015260a0815261170360c0826111a8565b51902090565b507f00000000000000000000000000000000000000000000000000000000000000004614611648565b65ffffffffffff61174243611917565b1680821015611755575061024e90611917565b90637669fc0f60e11b5f5260045260245260445ffd5b634e487b7160e01b5f52601160045260245ffd5b5f198101919082116106e057565b90600182018092116106e057565b6005546001600160a01b031633036117af57565b63118cdaa760e01b5f523360045260245ffd5b6001600160a01b038181165f81815260096020526040812080548685166001600160a01b0319821681179092556111d99694169461183d9390928691907f3134e8a2e6d97e929a7e54011ea5485d7d196dd5f0ba4d4ef95803e8e3fc257f9080a46001600160a01b03165f9081526020819052604090205490565b91611b1b565b805490816118515750505f90565b815f198101116106e0575f525f199060205f2001015460301c90565b604290611878611616565b906040519161190160f01b8352600283015260228201522090565b9161024e9391610d9893611cd4565b6001600160a01b03169081156113c8576001600160a01b0381169283156113b5578061190a7f8c5be1e5ebec7d5bd14f71427d1e84f3dd0314c0f7b2291e5b200ac8c7c3b92593855f52600160205260405f209060018060a01b03165f5260205260405f2090565b55604051908152602090a3565b65ffffffffffff811161192f5765ffffffffffff1690565b6306dfcc6560e41b5f52603060045260245260445ffd5b8115611950570490565b634e487b7160e01b5f52601260045260245ffd5b600181111561024e57806001600160801b821015611a85575b611a2b611a21611a17611a0d611a036119f96119e8611a329760048a600160401b611a379c1015611a78575b640100000000811015611a6b575b62010000811015611a5e575b610100811015611a51575b6010811015611a44575b1015611a3c575b60030260011c90565b6119f2818b611946565b0160011c90565b6119f2818a611946565b6119f28189611946565b6119f28188611946565b6119f28187611946565b6119f28186611946565b8093611946565b821190565b900390565b60011b6119df565b60041c9160021b916119d8565b60081c9160041b916119ce565b60101c9160081b916119c3565b60201c9160101b916119b7565b60401c9160201b916119a9565b5050611a37611a32611a2b611a21611a17611a0d611a036119f96119e8611aac8a60801c90565b9850600160401b975061197d9650505050505050565b905b838310611ad15750505090565b90919280841860011c8185160190835f5265ffffffffffff8260205f2001541665ffffffffffff8416105f14611b0b5750925b9190611ac4565b9350611b169061178d565b611b04565b6001600160a01b03808316939291908116908185141580611c34575b611b43575b5050505050565b81611bc7575b505082611b58575b8080611b3c565b6001600160a01b03165f908152600a602052604090207fdec2bacdd2f05b59de34da9b523dff8be42e5e38e818c82fdb0bae774387a72491611ba491611b9e9091611e24565b90611e8d565b604080516001600160d01b039384168152919092166020820152a25f8080611b51565b6001600160a01b03165f908152600a602052604090207fdec2bacdd2f05b59de34da9b523dff8be42e5e38e818c82fdb0bae774387a72490611c1290611c0c86611e24565b90611e55565b604080516001600160d01b039384168152919092166020820152a25f80611b49565b50831515611b37565b60ff8114611c835760ff811690601f8211611c745760405191611c616040846111a8565b6020808452838101919036833783525290565b632cd44ac360e21b5f5260045ffd5b5060405161024e81611c968160066110f2565b03826111a8565b60ff8114611cc15760ff811690601f8211611c745760405191611c616040846111a8565b5060405161024e81611c968160076110f2565b91907f7fffffffffffffffffffffffffffffff5d576e7357a4501ddfe92f46681b20a08411611d56579160209360809260ff5f9560405194855216868401526040830152606082015282805260015afa15611d4b575f516001600160a01b03811615611d4157905f905f90565b505f906001905f90565b6040513d5f823e3d90fd5b5050505f9160039190565b60041115611d6b57565b634e487b7160e01b5f52602160045260245ffd5b611d8881611d61565b80611d91575050565b611d9a81611d61565b60018103611db15763f645eedf60e01b5f5260045ffd5b611dba81611d61565b60028103611dd5575063fce698f760e01b5f5260045260245ffd5b80611de1600392611d61565b14611de95750565b6335e2f38360e21b5f5260045260245ffd5b8054821015611e10575f5260205f2001905f90565b634e487b7160e01b5f52603260045260245ffd5b6001600160d01b038111611e3e576001600160d01b031690565b6306dfcc6560e41b5f5260d060045260245260445ffd5b90611e5f43611917565b90611e6983611843565b6001600160d01b0391821690821603919082116106e057611e8992612075565b9091565b90611e9743611917565b90611ea183611843565b6001600160d01b0391821690821601919082116106e057611e8992612075565b611eca43611917565b90611ed5600b611843565b6001600160d01b03918216908216019081116106e057611e8991600b612075565b611eff43611917565b90611f0a600b611843565b6001600160d01b03918216908216039081116106e057611e8991600b612075565b906111d991611f3c6112ea83611e24565b50506001600160a01b03168015611f91575b60096020527fec8156718a8372b1db44bb411437d0870f3e3790d4a08526d024ce1b0b668f6b545f9182526040909120546001600160a01b039081169116611b1b565b611f9d61129283611e24565b5050611f4e565b6111d992916001600160a01b03909116908115612007575b6001600160a01b0316908115611ff4575b5f90815260096020526040808220549282529020546001600160a01b039081169116611b1b565b61200061129284611e24565b5050611fcd565b6120136112ea84611e24565b5050611fbc565b8054600160401b8110156111a35761203791600182018155611dfb565b61206257815160209092015160301b65ffffffffffff191665ffffffffffff92909216919091179055565b634e487b7160e01b5f525f60045260245ffd5b805492939280156121215761208c6120979161177f565b825f5260205f200190565b8054603081901c9365ffffffffffff91821692918116808411612112578793036120de57506120da92509065ffffffffffff82549181199060301b169116179055565b9190565b9150506120da916120fe6120f06111ca565b65ffffffffffff9093168352565b6001600160d01b038616602083015261201a565b632520601d60e01b5f5260045ffd5b5090612146916121326120f06111ca565b6001600160d01b038516602083015261201a565b5f919056fea26469706673582212206ed32548ad25eb465406ec93872f0e1b4e1df614a89f574e4541dbc8d5726dce64736f6c63430008210033","linkReferences":{}},"methodIdentifiers":{"CLOCK_MODE()":"4bf5d7e9","DOMAIN_SEPARATOR()":"3644e515","allowance(address,address)":"dd62ed3e","approve(address,uint256)":"095ea7b3","balanceOf(address)":"70a08231","burn(uint256)":"42966c68","burnFrom(address,uint256)":"79cc6790","checkpoints(address,uint32)":"f1127ed8","clock()":"91ddadf4","decimals()":"313ce567","delegate(address)":"5c19a95c","delegateBySig(address,uint256,uint256,uint8,bytes32,bytes32)":"c3cda520","delegates(address)":"587cde1e","depositFor(address,uint256)":"2f4f21e2","eip712Domain()":"84b0196e","getPastTotalSupply(uint256)":"8e539e8c","getPastVotes(address,uint256)":"3a46b1a8","getVotes(address)":"9ab24eb0","mint(address,uint256)":"40c10f19","name()":"06fdde03","nonces(address)":"7ecebe00","numCheckpoints(address)":"6fcfff45","owner()":"8da5cb5b","permit(address,address,uint256,uint256,uint8,bytes32,bytes32)":"d505accf","renounceOwnership()":"715018a6","symbol()":"95d89b41","totalSupply()":"18160ddd","transfer(address,uint256)":"a9059cbb","transferFrom(address,address,uint256)":"23b872dd","transferOwnership(address)":"f2fde38b","underlying()":"6f307dc3","withdrawTo(address,uint256)":"205c2878"},"id":86}