{"abi":[{"type":"constructor","inputs":[{"name":"_token","type":"address","internalType":"address"},{"name":"_creator","type":"address","internalType":"address"},{"name":"_timelock","type":"address","internalType":"address"},{"name":"_factory","type":"address","internalType":"address"}],"stateMutability":"nonpayable"},{"type":"function","name":"CAMPAIGN","inputs":[],"outputs":[{"name":"","type":"address","internalType":"address"}],"stateMutability":"view"},{"type":"function","name":"CAMPAIGN_CREATOR","inputs":[],"outputs":[{"name":"","type":"address","internalType":"address"}],"stateMutability":"view"},{"type":"function","name":"FACTORY","inputs":[],"outputs":[{"name":"","type":"address","internalType":"address"}],"stateMutability":"view"},{"type":"function","name":"TIMELOCK","inputs":[],"outputs":[{"name":"","type":"address","internalType":"address"}],"stateMutability":"view"},{"type":"function","name":"TOKEN","inputs":[],"outputs":[{"name":"","type":"address","internalType":"contract IERC20"}],"stateMutability":"view"},{"type":"function","name":"deposit","inputs":[{"name":"amount","type":"uint256","internalType":"uint256"}],"outputs":[],"stateMutability":"nonpayable"},{"type":"function","name":"emergencyWithdraw","inputs":[{"name":"amount","type":"uint256","internalType":"uint256"}],"outputs":[],"stateMutability":"nonpayable"},{"type":"function","name":"getMilestone","inputs":[{"name":"id","type":"uint256","internalType":"uint256"}],"outputs":[{"name":"proofCid","type":"string","internalType":"string"},{"name":"amount","type":"uint256","internalType":"uint256"},{"name":"released","type":"bool","internalType":"bool"}],"stateMutability":"view"},{"type":"function","name":"getMilestoneCount","inputs":[],"outputs":[{"name":"","type":"uint256","internalType":"uint256"}],"stateMutability":"view"},{"type":"function","name":"milestones","inputs":[{"name":"","type":"uint256","internalType":"uint256"}],"outputs":[{"name":"proofCid","type":"string","internalType":"string"},{"name":"amount","type":"uint256","internalType":"uint256"},{"name":"released","type":"bool","internalType":"bool"}],"stateMutability":"view"},{"type":"function","name":"owner","inputs":[],"outputs":[{"name":"","type":"address","internalType":"address"}],"stateMutability":"view"},{"type":"function","name":"proposeMilestone","inputs":[{"name":"proofCid","type":"string","internalType":"string"},{"name":"amount","type":"uint256","internalType":"uint256"}],"outputs":[],"stateMutability":"nonpayable"},{"type":"function","name":"releaseMilestone","inputs":[{"name":"milestoneId","type":"uint256","internalType":"uint256"}],"outputs":[],"stateMutability":"nonpayable"},{"type":"function","name":"renounceOwnership","inputs":[],"outputs":[],"stateMutability":"nonpayable"},{"type":"function","name":"totalDeposited","inputs":[],"outputs":[{"name":"","type":"uint256","internalType":"uint256"}],"stateMutability":"view"},{"type":"function","name":"totalReleased","inputs":[],"outputs":[{"name":"","type":"uint256","internalType":"uint256"}],"stateMutability":"view"},{"type":"function","name":"transferOwnership","inputs":[{"name":"newOwner","type":"address","internalType":"address"}],"outputs":[],"stateMutability":"nonpayable"},{"type":"event","name":"Deposited","inputs":[{"name":"donor","type":"address","indexed":true,"internalType":"address"},{"name":"amount","type":"uint256","indexed":false,"internalType":"uint256"}],"anonymous":false},{"type":"event","name":"MilestoneProposed","inputs":[{"name":"id","type":"uint256","indexed":true,"internalType":"uint256"},{"name":"proofCid","type":"string","indexed":false,"internalType":"string"},{"name":"amount","type":"uint256","indexed":false,"internalType":"uint256"}],"anonymous":false},{"type":"event","name":"MilestoneReleased","inputs":[{"name":"id","type":"uint256","indexed":true,"internalType":"uint256"},{"name":"amount","type":"uint256","indexed":false,"internalType":"uint256"},{"name":"to","type":"address","indexed":false,"internalType":"address"}],"anonymous":false},{"type":"event","name":"OwnershipTransferred","inputs":[{"name":"previousOwner","type":"address","indexed":true,"internalType":"address"},{"name":"newOwner","type":"address","indexed":true,"internalType":"address"}],"anonymous":false},{"type":"error","name":"OwnableInvalidOwner","inputs":[{"name":"owner","type":"address","internalType":"address"}]},{"type":"error","name":"OwnableUnauthorizedAccount","inputs":[{"name":"account","type":"address","internalType":"address"}]},{"type":"error","name":"ReentrancyGuardReentrantCall","inputs":[]},{"type":"error","name":"SafeERC20FailedOperation","inputs":[{"name":"token","type":"address","internalType":"address"}]}],"bytecode":{"object":"0x6101203461017957601f6111ed38819003918201601f19168301916001600160401b0383118484101761017d578084926080946040528339810103126101795761004881610191565b9061005560208201610191565b9061006e606061006760408401610191565b9201610191565b9160017f9b779b17422d0df92223018b32b4d1fa46e071723d6817e2486d003becc55f00553315610166575f8054336001600160a01b0319821681178355604051969290916001600160a01b0316907f8be0079c531659141344cd1fd0a4f28419497f9722a3daafe3b4186f6b6457e09080a36001600160a01b031660805260a05260c0523360e0526101005261104790816101a68239608051818181610266015281816106c5015281816107f70152610950015260a05181818161020d01526109e9015260c05181818161070a015281816107a70152610ba8015260e051818181610a2c0152610c8d01526101005181610beb0152f35b631e4fbdf760e01b5f525f60045260245ffd5b5f80fd5b634e487b7160e01b5f52604160045260245ffd5b51906001600160a01b03821682036101795756fe6080806040526004361015610012575f80fd5b5f905f3560e01c9081631eb307d514610c7b575080632442e1cb14610c1a5780632dd3100014610bd6578063317debf5146108e25780635312ea8e14610793578063715018a6146107395780637aadef8b146106f457806382bfefc8146106af5780638da5cb5b146106885780638f4cf2471461066a578063a1e887021461034e578063b6b55f251461023c578063dd444718146101f7578063e33b7de3146101d9578063e89e4ed614610187578063f2fde38b146100f95763ff50abdc146100d9575f80fd5b346100f657806003193601126100f6576020600154604051908152f35b80fd5b50346100f65760203660031901126100f6576004356001600160a01b0381169081900361018357610128610fcb565b801561016f5781546001600160a01b03198116821783556001600160a01b03167f8be0079c531659141344cd1fd0a4f28419497f9722a3daafe3b4186f6b6457e08380a380f35b631e4fbdf760e01b82526004829052602482fd5b5080fd5b50346100f65760203660031901126100f657600435600354811015610183576101af90610cf8565b506101b981610dcd565b6101d560ff600260018501549401541660405193849384610cbc565b0390f35b50346100f657806003193601126100f6576020600254604051908152f35b50346100f657806003193601126100f6576040517f00000000000000000000000000000000000000000000000000000000000000006001600160a01b03168152602090f35b50346100f65760203660031901126100f657600435610259610f12565b610264811515610ed1565b7f00000000000000000000000000000000000000000000000000000000000000006040516323b872dd60e01b845233600452306024528260445260208460648180865af190600185511482161561032d575b604052836060521561031257506102cf81600154610eb0565b6001556040519081527f2da466a7b24304f47e87fa2e1e5a81b9831ce54fec19055ce277ca2f39ba42c460203392a260015f516020610ff25f395f51905f525580f35b635274afe760e01b83526001600160a01b0316600452602482fd5b90600181151661034557823b15153d151616906102b6565b503d84823e3d90fd5b50346100f65760403660031901126100f65760043567ffffffffffffffff8111610183573660238201121561018357806004013567ffffffffffffffff8111610666576024820191602482369201011161066657602435916103ae610fcb565b6103b9831515610ed1565b6001546103c884600254610eb0565b11610621576040516103d981610d7b565b601f19601f840116906040516103f26020840182610dab565b8481528484602083013786602086830101528152602081019085825260408101918783526003546801000000000000000081101561060d5780600161043a9201600355610cf8565b9290926105f9575180519067ffffffffffffffff82116105e55761045e8454610d43565b601f8111610593575b50602090601f831160011461052d576002949392918b9183610522575b50508160011b915f199060031b1c19161782555b516001820155019051151560ff80198354169116179055600354935f19850194851161050e5791606091849387847fa8dc57f62ffa9c64862029f28b93c4e4bb142bab078b7a67ffe8947a80bc2a699760405197889660408852816040890152838801378501015260208301528101030190a280f35b634e487b7160e01b86526011600452602486fd5b015190505f80610484565b848b52818b209190601f1984168c5b81811061057b575091600193918560029897969410610563575b505050811b018255610498565b01515f1960f88460031b161c191690555f8080610556565b9293602060018192878601518155019501930161053c565b8281111561046757848b5260208b20601f840160051c90602085106105dd575b81601f9101920160051c03908b5b8281106105cf575050610467565b808d600192840155016105c1565b8c91506105b3565b634e487b7160e01b8a52604160045260248afd5b634e487b7160e01b89526004899052602489fd5b634e487b7160e01b89526041600452602489fd5b60405162461bcd60e51b815260206004820152601a60248201527f4e6f7420656e6f7567682066756e6473206465706f73697465640000000000006044820152606490fd5b8280fd5b50346100f657806003193601126100f6576020600354604051908152f35b50346100f657806003193601126100f657546040516001600160a01b039091168152602090f35b50346100f657806003193601126100f6576040517f00000000000000000000000000000000000000000000000000000000000000006001600160a01b03168152602090f35b50346100f657806003193601126100f6576040517f00000000000000000000000000000000000000000000000000000000000000006001600160a01b03168152602090f35b50346100f657806003193601126100f657610752610fcb565b80546001600160a01b03198116825581906001600160a01b03167f8be0079c531659141344cd1fd0a4f28419497f9722a3daafe3b4186f6b6457e08280a380f35b50346100f65760203660031901126100f6577f00000000000000000000000000000000000000000000000000000000000000006004356001600160a01b03821633036108a4576107e1610f12565b6040516370a0823160e01b8152306004820152917f00000000000000000000000000000000000000000000000000000000000000006020846024816001600160a01b0385165afa93841561089957859461085f575b506108468361084b951015610e6d565b610f4a565b60015f516020610ff25f395f51905f525580f35b93506020843d602011610891575b8161087a60209383610dab565b8101031261088d57925192610846610836565b5f80fd5b3d915061086d565b6040513d87823e3d90fd5b60405162461bcd60e51b815260206004820152601660248201527513db9b1e481d1a5b595b1bd8dac818d85b8818d85b1b60521b6044820152606490fd5b503461088d57602036600319011261088d576004356108ff610f12565b5f546001600160a01b031633148015610ba4575b15610b7057600354811015610b345761092b81610cf8565b509060028201805460ff8116610afc576040516370a0823160e01b81523060048201527f00000000000000000000000000000000000000000000000000000000000000009490926020846024816001600160a01b038a165afa918215610ab25785945f93610abd575b506040927fefa981f9388f17167597c5fee4fc3d24b2b772263e1accbf61cfb2d219fc40f594926001806109e19401946109d2865480951015610e6d565b60ff1916179055600254610eb0565b600255610a127f00000000000000000000000000000000000000000000000000000000000000009687835491610f4a565b5481518181526001600160a01b03909616602087015294a27f00000000000000000000000000000000000000000000000000000000000000006001600160a01b031691823b1561088d5760445f9283604051958694859363fb68913b60e01b8552600485015260248401525af18015610ab257610a9f575b5060015f516020610ff25f395f51905f525580f35b610aab91505f90610dab565b5f5f610a8a565b6040513d5f823e3d90fd5b9450929091506020843d602011610af4575b81610adc60209383610dab565b8101031261088d5792518493929091906109e1610994565b3d9150610acf565b60405162461bcd60e51b815260206004820152601060248201526f105b1c9958591e481c995b19585cd95960821b6044820152606490fd5b60405162461bcd60e51b8152602060048201526014602482015273125b9d985b1a59081b5a5b195cdd1bdb9948125160621b6044820152606490fd5b60405162461bcd60e51b815260206004820152600c60248201526b155b985d5d1a1bdc9a5e995960a21b6044820152606490fd5b50337f00000000000000000000000000000000000000000000000000000000000000006001600160a01b031614610913565b3461088d575f36600319011261088d576040517f00000000000000000000000000000000000000000000000000000000000000006001600160a01b03168152602090f35b3461088d57602036600319011261088d57610c36600435610cf8565b50604051610c4381610d7b565b6101d56040610c5184610dcd565b9283815260ff60026001870154968760208501520154161515918291015260405193849384610cbc565b3461088d575f36600319011261088d577f00000000000000000000000000000000000000000000000000000000000000006001600160a01b03168152602090f35b91939260806020604093606086528051918291826060890152018387015e5f828287010152601f80199101168401019460208401521515910152565b600354811015610d2f5760035f81815291027fc2575a0e9e593c00f959f8c92f12db2869c3395a3b0502d05e2516446f71f85b0191565b634e487b7160e01b5f52603260045260245ffd5b90600182811c92168015610d71575b6020831014610d5d57565b634e487b7160e01b5f52602260045260245ffd5b91607f1691610d52565b6060810190811067ffffffffffffffff821117610d9757604052565b634e487b7160e01b5f52604160045260245ffd5b90601f8019910116810190811067ffffffffffffffff821117610d9757604052565b9060405191825f825492610de084610d43565b8084529360018116908115610e4b5750600114610e07575b50610e0592500383610dab565b565b90505f9291925260205f20905f915b818310610e2f575050906020610e05928201015f610df8565b6020919350806001915483858901015201910190918492610e16565b905060209250610e0594915060ff191682840152151560051b8201015f610df8565b15610e7457565b60405162461bcd60e51b8152602060048201526014602482015273496e73756666696369656e742062616c616e636560601b6044820152606490fd5b91908201809211610ebd57565b634e487b7160e01b5f52601160045260245ffd5b15610ed857565b60405162461bcd60e51b81526020600482015260126024820152710416d6f756e74206d757374206265203e20360741b6044820152606490fd5b60025f516020610ff25f395f51905f525414610f3b5760025f516020610ff25f395f51905f5255565b633ee5aeb560e01b5f5260045ffd5b916040519163a9059cbb60e01b5f5260018060a01b031660045260245260205f60448180865af19060015f5114821615610faa575b60405215610f8a5750565b635274afe760e01b5f9081526001600160a01b0391909116600452602490fd5b906001811516610fc257823b15153d15161690610f7f565b503d5f823e3d90fd5b5f546001600160a01b03163303610fde57565b63118cdaa760e01b5f523360045260245ffdfe9b779b17422d0df92223018b32b4d1fa46e071723d6817e2486d003becc55f00a26469706673582212208db238feb220f1c29e19f204240e6121c17978a154c2b120dc735e365136847f64736f6c63430008210033","linkReferences":{}},"methodIdentifiers":{"CAMPAIGN()":"1eb307d5","CAMPAIGN_CREATOR()":"dd444718","FACTORY()":"2dd31000","TIMELOCK()":"7aadef8b","TOKEN()":"82bfefc8","deposit(uint256)":"b6b55f25","emergencyWithdraw(uint256)":"5312ea8e","getMilestone(uint256)":"2442e1cb","getMilestoneCount()":"8f4cf247","milestones(uint256)":"e89e4ed6","owner()":"8da5cb5b","proposeMilestone(string,uint256)":"a1e88702","releaseMilestone(uint256)":"317debf5","renounceOwnership()":"715018a6","totalDeposited()":"ff50abdc","totalReleased()":"e33b7de3","transferOwnership(address)":"f2fde38b"},"id":87}